{"contracts/MerkleDistributorFactory.sol":{"MerkleDistributorFactory":{"abi":[{"anonymous":false,"inputs":[{"indexed":true,"internalType":"address","name":"distributor","type":"address"},{"indexed":true,"internalType":"address","name":"creator","type":"address"},{"indexed":true,"internalType":"address","name":"token","type":"address"}],"name":"MerkleDistributorDeployed","type":"event"},{"inputs":[{"internalType":"address[]","name":"distributors","type":"address[]"},{"internalType":"address","name":"account","type":"address"},{"internalType":"uint256[]","name":"amounts","type":"uint256[]"},{"internalType":"bytes32[][]","name":"merkleProofs","type":"bytes32[][]"}],"name":"claim","outputs":[],"stateMutability":"nonpayable","type":"function"},{"inputs":[{"internalType":"address","name":"token","type":"address"},{"internalType":"bytes32","name":"merkleRoot","type":"bytes32"},{"internalType":"uint256","name":"AirdropAmount","type":"uint256"}],"name":"createMerkleDistributor","outputs":[],"stateMutability":"nonpayable","type":"function"},{"inputs":[{"internalType":"address","name":"","type":"address"}],"name":"deployedContracts","outputs":[{"internalType":"bool","name":"","type":"bool"}],"stateMutability":"view","type":"function"},{"inputs":[{"internalType":"uint256","name":"","type":"uint256"}],"name":"deployedContractsList","outputs":[{"internalType":"address","name":"","type":"address"}],"stateMutability":"view","type":"function"},{"inputs":[],"name":"getAllDeployedContracts","outputs":[{"internalType":"address[]","name":"","type":"address[]"}],"stateMutability":"view","type":"function"},{"inputs":[{"internalType":"address","name":"","type":"address"},{"internalType":"address","name":"","type":"address"}],"name":"tokenBalances","outputs":[{"internalType":"uint256","name":"","type":"uint256"}],"stateMutability":"view","type":"function"}],"evm":{"bytecode":{"linkReferences":{},"object":"608060405234801561001057600080fd5b506124ea806100206000396000f3fe60806040523480156200001157600080fd5b50600436106200006a5760003560e01c8063470f0f86146200006f5780634dbf6c5a146200008f5780636c9364b214620000c557806399ca49eb14620000e7578063c70242ad146200011d578063f6937f801462000153575b600080fd5b6200008d600480360381019062000087919062000ed7565b62000173565b005b620000ad6004803603810190620000a7919062000fab565b620005aa565b604051620000bc919062001003565b60405180910390f35b620000cf620005cf565b604051620000de9190620010ee565b60405180910390f35b620001056004803603810190620000ff919062001112565b6200065f565b60405162000114919062001155565b60405180910390f35b6200013b600480360381019062000135919062001172565b6200069f565b6040516200014a9190620011c1565b60405180910390f35b6200017160048036038101906200016b919062001219565b620006bf565b005b82518551148015620001885750818190508551145b620001ca576040517f08c379a0000000000000000000000000000000000000000000000000000000008152600401620001c190620012d6565b60405180910390fd5b60005b8551811015620005a2576000868281518110620001ef57620001ee620012f8565b5b602002602001015190506000858381518110620002115762000210620012f8565b5b60200260200101519050366000868686818110620002345762000233620012f8565b5b905060200281019062000248919062001336565b915091506000808573ffffffffffffffffffffffffffffffffffffffff1673ffffffffffffffffffffffffffffffffffffffff16815260200190815260200160002060009054906101000a900460ff16620002da576040517f08c379a0000000000000000000000000000000000000000000000000000000008152600401620002d190620013f2565b60405180910390fd5b82600260008673ffffffffffffffffffffffffffffffffffffffff1673ffffffffffffffffffffffffffffffffffffffff16815260200190815260200160002060008673ffffffffffffffffffffffffffffffffffffffff1663fc0c546a6040518163ffffffff1660e01b8152600401602060405180830381865afa15801562000368573d6000803e3d6000fd5b505050506040513d601f19601f820116820180604052508101906200038e91906200142b565b73ffffffffffffffffffffffffffffffffffffffff1673ffffffffffffffffffffffffffffffffffffffff1681526020019081526020016000205410156200040d576040517f08c379a00000000000000000000000000000000000000000000000000000000081526004016200040490620014d3565b60405180910390fd5b82600260008673ffffffffffffffffffffffffffffffffffffffff1673ffffffffffffffffffffffffffffffffffffffff16815260200190815260200160002060008673ffffffffffffffffffffffffffffffffffffffff1663fc0c546a6040518163ffffffff1660e01b8152600401602060405180830381865afa1580156200049b573d6000803e3d6000fd5b505050506040513d601f19601f82011682018060405250810190620004c191906200142b565b73ffffffffffffffffffffffffffffffffffffffff1673ffffffffffffffffffffffffffffffffffffffff16815260200190815260200160002060008282546200050c919062001524565b925050819055508373ffffffffffffffffffffffffffffffffffffffff16633d13f8748a8585856040518563ffffffff1660e01b8152600401620005549493929190620015e1565b600060405180830381600087803b1580156200056f57600080fd5b505af115801562000584573d6000803e3d6000fd5b50505050505050508080620005999062001627565b915050620001cd565b505050505050565b6002602052816000526040600020602052806000526040600020600091509150505481565b606060018054806020026020016040519081016040528092919081815260200182805480156200065557602002820191906000526020600020905b8160009054906101000a900473ffffffffffffffffffffffffffffffffffffffff1673ffffffffffffffffffffffffffffffffffffffff16815260200190600101908083116200060a575b5050505050905090565b600181815481106200067057600080fd5b906000526020600020016000915054906101000a900473ffffffffffffffffffffffffffffffffffffffff1681565b60006020528060005260406000206000915054906101000a900460ff1681565b808373ffffffffffffffffffffffffffffffffffffffff166370a08231336040518263ffffffff1660e01b8152600401620006fb919062001155565b602060405180830381865afa15801562000719573d6000803e3d6000fd5b505050506040513d601f19601f820116820180604052508101906200073f91906200168b565b101562000783576040517f08c379a00000000000000000000000000000000000000000000000000000000081526004016200077a9062001733565b60405180910390fd5b6000808473ffffffffffffffffffffffffffffffffffffffff1673ffffffffffffffffffffffffffffffffffffffff16815260200190815260200160002060009054906101000a900460ff161562000812576040517f08c379a00000000000000000000000000000000000000000000000000000000081526004016200080990620017cb565b60405180910390fd5b8273ffffffffffffffffffffffffffffffffffffffff166323b872dd3330846040518463ffffffff1660e01b81526004016200085193929190620017ed565b6020604051808303816000875af115801562000871573d6000803e3d6000fd5b505050506040513d601f19601f820116820180604052508101906200089791906200185b565b506000838383604051620008ab9062000b66565b620008b9939291906200189e565b604051809103906000f080158015620008d6573d6000803e3d6000fd5b5090508373ffffffffffffffffffffffffffffffffffffffff1663a9059cbb82846040518363ffffffff1660e01b815260040162000916929190620018db565b6020604051808303816000875af115801562000936573d6000803e3d6000fd5b505050506040513d601f19601f820116820180604052508101906200095c91906200185b565b5060016000808673ffffffffffffffffffffffffffffffffffffffff1673ffffffffffffffffffffffffffffffffffffffff16815260200190815260200160002060006101000a81548160ff02191690831515021790555060016000808373ffffffffffffffffffffffffffffffffffffffff1673ffffffffffffffffffffffffffffffffffffffff16815260200190815260200160002060006101000a81548160ff0219169083151502179055506001819080600181540180825580915050600190039060005260206000200160009091909190916101000a81548173ffffffffffffffffffffffffffffffffffffffff021916908373ffffffffffffffffffffffffffffffffffffffff16021790555081600260008373ffffffffffffffffffffffffffffffffffffffff1673ffffffffffffffffffffffffffffffffffffffff16815260200190815260200160002060008673ffffffffffffffffffffffffffffffffffffffff1673ffffffffffffffffffffffffffffffffffffffff168152602001908152602001600020819055508373ffffffffffffffffffffffffffffffffffffffff163373ffffffffffffffffffffffffffffffffffffffff168273ffffffffffffffffffffffffffffffffffffffff167fa2cceb60a276e698e370384a6d8d9b143cb5be6a57b3e0f27dfd0f5ab7108ed660405160405180910390a450505050565b610bac806200190983390190565b6000604051905090565b600080fd5b600080fd5b600080fd5b6000601f19601f8301169050919050565b7f4e487b7100000000000000000000000000000000000000000000000000000000600052604160045260246000fd5b62000bd88262000b8d565b810181811067ffffffffffffffff8211171562000bfa5762000bf962000b9e565b5b80604052505050565b600062000c0f62000b74565b905062000c1d828262000bcd565b919050565b600067ffffffffffffffff82111562000c405762000c3f62000b9e565b5b602082029050602081019050919050565b600080fd5b600073ffffffffffffffffffffffffffffffffffffffff82169050919050565b600062000c838262000c56565b9050919050565b62000c958162000c76565b811462000ca157600080fd5b50565b60008135905062000cb58162000c8a565b92915050565b600062000cd262000ccc8462000c22565b62000c03565b9050808382526020820190506020840283018581111562000cf85762000cf762000c51565b5b835b8181101562000d25578062000d10888262000ca4565b84526020840193505060208101905062000cfa565b5050509392505050565b600082601f83011262000d475762000d4662000b88565b5b813562000d5984826020860162000cbb565b91505092915050565b600067ffffffffffffffff82111562000d805762000d7f62000b9e565b5b602082029050602081019050919050565b6000819050919050565b62000da68162000d91565b811462000db257600080fd5b50565b60008135905062000dc68162000d9b565b92915050565b600062000de362000ddd8462000d62565b62000c03565b9050808382526020820190506020840283018581111562000e095762000e0862000c51565b5b835b8181101562000e36578062000e21888262000db5565b84526020840193505060208101905062000e0b565b5050509392505050565b600082601f83011262000e585762000e5762000b88565b5b813562000e6a84826020860162000dcc565b91505092915050565b600080fd5b60008083601f84011262000e915762000e9062000b88565b5b8235905067ffffffffffffffff81111562000eb15762000eb062000e73565b5b60208301915083602082028301111562000ed05762000ecf62000c51565b5b9250929050565b60008060008060006080868803121562000ef65762000ef562000b7e565b5b600086013567ffffffffffffffff81111562000f175762000f1662000b83565b5b62000f258882890162000d2f565b955050602062000f388882890162000ca4565b945050604086013567ffffffffffffffff81111562000f5c5762000f5b62000b83565b5b62000f6a8882890162000e40565b935050606086013567ffffffffffffffff81111562000f8e5762000f8d62000b83565b5b62000f9c8882890162000e78565b92509250509295509295909350565b6000806040838503121562000fc55762000fc462000b7e565b5b600062000fd58582860162000ca4565b925050602062000fe88582860162000ca4565b9150509250929050565b62000ffd8162000d91565b82525050565b60006020820190506200101a600083018462000ff2565b92915050565b600081519050919050565b600082825260208201905092915050565b6000819050602082019050919050565b620010578162000c76565b82525050565b60006200106b83836200104c565b60208301905092915050565b6000602082019050919050565b6000620010918262001020565b6200109d81856200102b565b9350620010aa836200103c565b8060005b83811015620010e1578151620010c588826200105d565b9750620010d28362001077565b925050600181019050620010ae565b5085935050505092915050565b600060208201905081810360008301526200110a818462001084565b905092915050565b6000602082840312156200112b576200112a62000b7e565b5b60006200113b8482850162000db5565b91505092915050565b6200114f8162000c76565b82525050565b60006020820190506200116c600083018462001144565b92915050565b6000602082840312156200118b576200118a62000b7e565b5b60006200119b8482850162000ca4565b91505092915050565b60008115159050919050565b620011bb81620011a4565b82525050565b6000602082019050620011d86000830184620011b0565b92915050565b6000819050919050565b620011f381620011de565b8114620011ff57600080fd5b50565b6000813590506200121381620011e8565b92915050565b60008060006060848603121562001235576200123462000b7e565b5b6000620012458682870162000ca4565b9350506020620012588682870162001202565b92505060406200126b8682870162000db5565b9150509250925092565b600082825260208201905092915050565b7f4172726179206c656e677468206d69736d617463680000000000000000000000600082015250565b6000620012be60158362001275565b9150620012cb8262001286565b602082019050919050565b60006020820190508181036000830152620012f181620012af565b9050919050565b7f4e487b7100000000000000000000000000000000000000000000000000000000600052603260045260246000fd5b600080fd5b600080fd5b600080fd5b6000808335600160200384360303811262001356576200135562001327565b5b80840192508235915067ffffffffffffffff8211156200137b576200137a6200132c565b5b6020830192506020820236038313156200139a576200139962001331565b5b509250929050565b7f496e76616c6964206469737472696275746f7220636f6e747261637400000000600082015250565b6000620013da601c8362001275565b9150620013e782620013a2565b602082019050919050565b600060208201905081810360008301526200140d81620013cb565b9050919050565b600081519050620014258162000c8a565b92915050565b60006020828403121562001444576200144362000b7e565b5b6000620014548482850162001414565b91505092915050565b7f496e73756666696369656e7420746f6b656e2062616c616e636520666f72206460008201527f69737472696275746f7200000000000000000000000000000000000000000000602082015250565b6000620014bb602a8362001275565b9150620014c8826200145d565b604082019050919050565b60006020820190508181036000830152620014ee81620014ac565b9050919050565b7f4e487b7100000000000000000000000000000000000000000000000000000000600052601160045260246000fd5b6000620015318262000d91565b91506200153e8362000d91565b9250828203905081811115620015595762001558620014f5565b5b92915050565b600082825260208201905092915050565b600080fd5b82818337505050565b60006200158c83856200155f565b93507f07ffffffffffffffffffffffffffffffffffffffffffffffffffffffffffffff831115620015c257620015c162001570565b5b602083029250620015d583858462001575565b82840190509392505050565b6000606082019050620015f8600083018762001144565b62001607602083018662000ff2565b81810360408301526200161c8184866200157e565b905095945050505050565b6000620016348262000d91565b91507fffffffffffffffffffffffffffffffffffffffffffffffffffffffffffffffff8203620016695762001668620014f5565b5b600182019050919050565b600081519050620016858162000d9b565b92915050565b600060208284031215620016a457620016a362000b7e565b5b6000620016b48482850162001674565b91505092915050565b7f4d65726b6c654469737472696275746f723a20496e73756666696369656e742060008201527f62616c616e636500000000000000000000000000000000000000000000000000602082015250565b60006200171b60278362001275565b91506200172882620016bd565b604082019050919050565b600060208201905081810360008301526200174e816200170c565b9050919050565b7f4d65726b6c654469737472696275746f7220666f72207468697320746f6b656e60008201527f20697320616c7265616479206465706c6f796564000000000000000000000000602082015250565b6000620017b360348362001275565b9150620017c08262001755565b604082019050919050565b60006020820190508181036000830152620017e681620017a4565b9050919050565b600060608201905062001804600083018662001144565b62001813602083018562001144565b62001822604083018462000ff2565b949350505050565b6200183581620011a4565b81146200184157600080fd5b50565b60008151905062001855816200182a565b92915050565b60006020828403121562001874576200187362000b7e565b5b6000620018848482850162001844565b91505092915050565b6200189881620011de565b82525050565b6000606082019050620018b5600083018662001144565b620018c460208301856200188d565b620018d3604083018462000ff2565b949350505050565b6000604082019050620018f2600083018562001144565b62001901602083018462000ff2565b939250505056fe60806040523480156200001157600080fd5b5060405162000bac38038062000bac83398181016040528101906200003791906200016e565b826000806101000a81548173ffffffffffffffffffffffffffffffffffffffff021916908373ffffffffffffffffffffffffffffffffffffffff1602179055508160018190555080600381905550505050620001ca565b600080fd5b600073ffffffffffffffffffffffffffffffffffffffff82169050919050565b6000620000c08262000093565b9050919050565b620000d281620000b3565b8114620000de57600080fd5b50565b600081519050620000f281620000c7565b92915050565b6000819050919050565b6200010d81620000f8565b81146200011957600080fd5b50565b6000815190506200012d8162000102565b92915050565b6000819050919050565b620001488162000133565b81146200015457600080fd5b50565b60008151905062000168816200013d565b92915050565b6000806000606084860312156200018a57620001896200008e565b5b60006200019a86828701620000e1565b9350506020620001ad868287016200011c565b9250506040620001c08682870162000157565b9150509250925092565b6109d280620001da6000396000f3fe608060405234801561001057600080fd5b506004361061004c5760003560e01c80632eb4a7ab146100515780633d13f8741461006f57806346c7b2981461008b578063fc0c546a146100a9575b600080fd5b6100596100c7565b6040516100669190610472565b60405180910390f35b61008960048036038101906100849190610590565b6100cd565b005b610093610380565b6040516100a09190610613565b60405180910390f35b6100b1610386565b6040516100be919061063d565b60405180910390f35b60015481565b6000600260008673ffffffffffffffffffffffffffffffffffffffff1673ffffffffffffffffffffffffffffffffffffffff168152602001908152602001600020541461014f576040517f08c379a0000000000000000000000000000000000000000000000000000000008152600401610146906106db565b60405180910390fd5b60008484604051602001610164929190610764565b6040516020818303038152906040528051906020012090506101ca838380806020026020016040519081016040528093929190818152602001838360200280828437600081840152601f19601f82011690508083019250505050505050600154836103aa565b610209576040517f08c379a0000000000000000000000000000000000000000000000000000000008152600401610200906107dc565b60405180910390fd5b6001600260008773ffffffffffffffffffffffffffffffffffffffff1673ffffffffffffffffffffffffffffffffffffffff1681526020019081526020016000208190555060008054906101000a900473ffffffffffffffffffffffffffffffffffffffff1673ffffffffffffffffffffffffffffffffffffffff1663a9059cbb86866040518363ffffffff1660e01b81526004016102a99291906107fc565b6020604051808303816000875af11580156102c8573d6000803e3d6000fd5b505050506040513d601f19601f820116820180604052508101906102ec919061085d565b61032b576040517f08c379a0000000000000000000000000000000000000000000000000000000008152600401610322906108d6565b60405180910390fd5b8473ffffffffffffffffffffffffffffffffffffffff167fd8138f8a3f377c5259ca548e70e4c2de94f129f5a11036a15b69513cba2b426a856040516103719190610613565b60405180910390a25050505050565b60035481565b60008054906101000a900473ffffffffffffffffffffffffffffffffffffffff1681565b6000826103b785846103c1565b1490509392505050565b60008082905060005b845181101561040c576103f7828683815181106103ea576103e96108f6565b5b6020026020010151610417565b9150808061040490610954565b9150506103ca565b508091505092915050565b600081831061042f5761042a8284610442565b61043a565b6104398383610442565b5b905092915050565b600082600052816020526040600020905092915050565b6000819050919050565b61046c81610459565b82525050565b60006020820190506104876000830184610463565b92915050565b600080fd5b600080fd5b600073ffffffffffffffffffffffffffffffffffffffff82169050919050565b60006104c282610497565b9050919050565b6104d2816104b7565b81146104dd57600080fd5b50565b6000813590506104ef816104c9565b92915050565b6000819050919050565b610508816104f5565b811461051357600080fd5b50565b600081359050610525816104ff565b92915050565b600080fd5b600080fd5b600080fd5b60008083601f8401126105505761054f61052b565b5b8235905067ffffffffffffffff81111561056d5761056c610530565b5b60208301915083602082028301111561058957610588610535565b5b9250929050565b600080600080606085870312156105aa576105a961048d565b5b60006105b8878288016104e0565b94505060206105c987828801610516565b935050604085013567ffffffffffffffff8111156105ea576105e9610492565b5b6105f68782880161053a565b925092505092959194509250565b61060d816104f5565b82525050565b60006020820190506106286000830184610604565b92915050565b610637816104b7565b82525050565b6000602082019050610652600083018461062e565b92915050565b600082825260208201905092915050565b7f4d65726b6c654469737472696275746f723a2044726f7020616c72656164792060008201527f636c61696d656400000000000000000000000000000000000000000000000000602082015250565b60006106c5602783610658565b91506106d082610669565b604082019050919050565b600060208201905081810360008301526106f4816106b8565b9050919050565b60008160601b9050919050565b6000610713826106fb565b9050919050565b600061072582610708565b9050919050565b61073d610738826104b7565b61071a565b82525050565b6000819050919050565b61075e610759826104f5565b610743565b82525050565b6000610770828561072c565b601482019150610780828461074d565b6020820191508190509392505050565b7f496e76616c69642070726f6f6600000000000000000000000000000000000000600082015250565b60006107c6600d83610658565b91506107d182610790565b602082019050919050565b600060208201905081810360008301526107f5816107b9565b9050919050565b6000604082019050610811600083018561062e565b61081e6020830184610604565b9392505050565b60008115159050919050565b61083a81610825565b811461084557600080fd5b50565b60008151905061085781610831565b92915050565b6000602082840312156108735761087261048d565b5b600061088184828501610848565b91505092915050565b7f5472616e73666572206661696c65640000000000000000000000000000000000600082015250565b60006108c0600f83610658565b91506108cb8261088a565b602082019050919050565b600060208201905081810360008301526108ef816108b3565b9050919050565b7f4e487b7100000000000000000000000000000000000000000000000000000000600052603260045260246000fd5b7f4e487b7100000000000000000000000000000000000000000000000000000000600052601160045260246000fd5b600061095f826104f5565b91507fffffffffffffffffffffffffffffffffffffffffffffffffffffffffffffffff820361099157610990610925565b5b60018201905091905056fea264697066735822122029eba09ca37ae1295433ba46fc00971022a5d3abfc36c9dd596a2deda4de0a7c64736f6c63430008130033a2646970667358221220489627bb1fa99691ddbeecc1290a13a51e43a6b266736700deaf21722554a0ed64736f6c63430008130033","opcodes":"PUSH1 0x80 PUSH1 0x40 MSTORE CALLVALUE DUP1 ISZERO PUSH2 0x10 JUMPI PUSH1 0x0 DUP1 REVERT JUMPDEST POP PUSH2 0x24EA DUP1 PUSH2 0x20 PUSH1 0x0 CODECOPY PUSH1 0x0 RETURN INVALID PUSH1 0x80 PUSH1 0x40 MSTORE CALLVALUE DUP1 ISZERO PUSH3 0x11 JUMPI PUSH1 0x0 DUP1 REVERT JUMPDEST POP PUSH1 0x4 CALLDATASIZE LT PUSH3 0x6A JUMPI PUSH1 0x0 CALLDATALOAD PUSH1 0xE0 SHR DUP1 PUSH4 0x470F0F86 EQ PUSH3 0x6F JUMPI DUP1 PUSH4 0x4DBF6C5A EQ PUSH3 0x8F JUMPI DUP1 PUSH4 0x6C9364B2 EQ PUSH3 0xC5 JUMPI DUP1 PUSH4 0x99CA49EB EQ PUSH3 0xE7 JUMPI DUP1 PUSH4 0xC70242AD EQ PUSH3 0x11D JUMPI DUP1 PUSH4 0xF6937F80 EQ PUSH3 0x153 JUMPI JUMPDEST PUSH1 0x0 DUP1 REVERT JUMPDEST PUSH3 0x8D PUSH1 0x4 DUP1 CALLDATASIZE SUB DUP2 ADD SWAP1 PUSH3 0x87 SWAP2 SWAP1 PUSH3 0xED7 JUMP JUMPDEST PUSH3 0x173 JUMP JUMPDEST STOP JUMPDEST PUSH3 0xAD PUSH1 0x4 DUP1 CALLDATASIZE SUB DUP2 ADD SWAP1 PUSH3 0xA7 SWAP2 SWAP1 PUSH3 0xFAB JUMP JUMPDEST PUSH3 0x5AA JUMP JUMPDEST PUSH1 0x40 MLOAD PUSH3 0xBC SWAP2 SWAP1 PUSH3 0x1003 JUMP JUMPDEST PUSH1 0x40 MLOAD DUP1 SWAP2 SUB SWAP1 RETURN JUMPDEST PUSH3 0xCF PUSH3 0x5CF JUMP JUMPDEST PUSH1 0x40 MLOAD PUSH3 0xDE SWAP2 SWAP1 PUSH3 0x10EE JUMP JUMPDEST PUSH1 0x40 MLOAD DUP1 SWAP2 SUB SWAP1 RETURN JUMPDEST PUSH3 0x105 PUSH1 0x4 DUP1 CALLDATASIZE SUB DUP2 ADD SWAP1 PUSH3 0xFF SWAP2 SWAP1 PUSH3 0x1112 JUMP JUMPDEST PUSH3 0x65F JUMP JUMPDEST PUSH1 0x40 MLOAD PUSH3 0x114 SWAP2 SWAP1 PUSH3 0x1155 JUMP JUMPDEST PUSH1 0x40 MLOAD DUP1 SWAP2 SUB SWAP1 RETURN JUMPDEST PUSH3 0x13B PUSH1 0x4 DUP1 CALLDATASIZE SUB DUP2 ADD SWAP1 PUSH3 0x135 SWAP2 SWAP1 PUSH3 0x1172 JUMP JUMPDEST PUSH3 0x69F JUMP JUMPDEST PUSH1 0x40 MLOAD PUSH3 0x14A SWAP2 SWAP1 PUSH3 0x11C1 JUMP JUMPDEST PUSH1 0x40 MLOAD DUP1 SWAP2 SUB SWAP1 RETURN JUMPDEST PUSH3 0x171 PUSH1 0x4 DUP1 CALLDATASIZE SUB DUP2 ADD SWAP1 PUSH3 0x16B SWAP2 SWAP1 PUSH3 0x1219 JUMP JUMPDEST PUSH3 0x6BF JUMP JUMPDEST STOP JUMPDEST DUP3 MLOAD DUP6 MLOAD EQ DUP1 ISZERO PUSH3 0x188 JUMPI POP DUP2 DUP2 SWAP1 POP DUP6 MLOAD EQ JUMPDEST PUSH3 0x1CA JUMPI PUSH1 0x40 MLOAD PUSH32 0x8C379A000000000000000000000000000000000000000000000000000000000 DUP2 MSTORE PUSH1 0x4 ADD PUSH3 0x1C1 SWAP1 PUSH3 0x12D6 JUMP JUMPDEST PUSH1 0x40 MLOAD DUP1 SWAP2 SUB SWAP1 REVERT JUMPDEST PUSH1 0x0 JUMPDEST DUP6 MLOAD DUP2 LT ISZERO PUSH3 0x5A2 JUMPI PUSH1 0x0 DUP7 DUP3 DUP2 MLOAD DUP2 LT PUSH3 0x1EF JUMPI PUSH3 0x1EE PUSH3 0x12F8 JUMP JUMPDEST JUMPDEST PUSH1 0x20 MUL PUSH1 0x20 ADD ADD MLOAD SWAP1 POP PUSH1 0x0 DUP6 DUP4 DUP2 MLOAD DUP2 LT PUSH3 0x211 JUMPI PUSH3 0x210 PUSH3 0x12F8 JUMP JUMPDEST JUMPDEST PUSH1 0x20 MUL PUSH1 0x20 ADD ADD MLOAD SWAP1 POP CALLDATASIZE PUSH1 0x0 DUP7 DUP7 DUP7 DUP2 DUP2 LT PUSH3 0x234 JUMPI PUSH3 0x233 PUSH3 0x12F8 JUMP JUMPDEST JUMPDEST SWAP1 POP PUSH1 0x20 MUL DUP2 ADD SWAP1 PUSH3 0x248 SWAP2 SWAP1 PUSH3 0x1336 JUMP JUMPDEST SWAP2 POP SWAP2 POP PUSH1 0x0 DUP1 DUP6 PUSH20 0xFFFFFFFFFFFFFFFFFFFFFFFFFFFFFFFFFFFFFFFF AND PUSH20 0xFFFFFFFFFFFFFFFFFFFFFFFFFFFFFFFFFFFFFFFF AND DUP2 MSTORE PUSH1 0x20 ADD SWAP1 DUP2 MSTORE PUSH1 0x20 ADD PUSH1 0x0 KECCAK256 PUSH1 0x0 SWAP1 SLOAD SWAP1 PUSH2 0x100 EXP SWAP1 DIV PUSH1 0xFF AND PUSH3 0x2DA JUMPI PUSH1 0x40 MLOAD PUSH32 0x8C379A000000000000000000000000000000000000000000000000000000000 DUP2 MSTORE PUSH1 0x4 ADD PUSH3 0x2D1 SWAP1 PUSH3 0x13F2 JUMP JUMPDEST PUSH1 0x40 MLOAD DUP1 SWAP2 SUB SWAP1 REVERT JUMPDEST DUP3 PUSH1 0x2 PUSH1 0x0 DUP7 PUSH20 0xFFFFFFFFFFFFFFFFFFFFFFFFFFFFFFFFFFFFFFFF AND PUSH20 0xFFFFFFFFFFFFFFFFFFFFFFFFFFFFFFFFFFFFFFFF AND DUP2 MSTORE PUSH1 0x20 ADD SWAP1 DUP2 MSTORE PUSH1 0x20 ADD PUSH1 0x0 KECCAK256 PUSH1 0x0 DUP7 PUSH20 0xFFFFFFFFFFFFFFFFFFFFFFFFFFFFFFFFFFFFFFFF AND PUSH4 0xFC0C546A PUSH1 0x40 MLOAD DUP2 PUSH4 0xFFFFFFFF AND PUSH1 0xE0 SHL DUP2 MSTORE PUSH1 0x4 ADD PUSH1 0x20 PUSH1 0x40 MLOAD DUP1 DUP4 SUB DUP2 DUP7 GAS STATICCALL ISZERO DUP1 ISZERO PUSH3 0x368 JUMPI RETURNDATASIZE PUSH1 0x0 DUP1 RETURNDATACOPY RETURNDATASIZE PUSH1 0x0 REVERT JUMPDEST POP POP POP POP PUSH1 0x40 MLOAD RETURNDATASIZE PUSH1 0x1F NOT PUSH1 0x1F DUP3 ADD AND DUP3 ADD DUP1 PUSH1 0x40 MSTORE POP DUP2 ADD SWAP1 PUSH3 0x38E SWAP2 SWAP1 PUSH3 0x142B JUMP JUMPDEST PUSH20 0xFFFFFFFFFFFFFFFFFFFFFFFFFFFFFFFFFFFFFFFF AND PUSH20 0xFFFFFFFFFFFFFFFFFFFFFFFFFFFFFFFFFFFFFFFF AND DUP2 MSTORE PUSH1 0x20 ADD SWAP1 DUP2 MSTORE PUSH1 0x20 ADD PUSH1 0x0 KECCAK256 SLOAD LT ISZERO PUSH3 0x40D JUMPI PUSH1 0x40 MLOAD PUSH32 0x8C379A000000000000000000000000000000000000000000000000000000000 DUP2 MSTORE PUSH1 0x4 ADD PUSH3 0x404 SWAP1 PUSH3 0x14D3 JUMP JUMPDEST PUSH1 0x40 MLOAD DUP1 SWAP2 SUB SWAP1 REVERT JUMPDEST DUP3 PUSH1 0x2 PUSH1 0x0 DUP7 PUSH20 0xFFFFFFFFFFFFFFFFFFFFFFFFFFFFFFFFFFFFFFFF AND PUSH20 0xFFFFFFFFFFFFFFFFFFFFFFFFFFFFFFFFFFFFFFFF AND DUP2 MSTORE PUSH1 0x20 ADD SWAP1 DUP2 MSTORE PUSH1 0x20 ADD PUSH1 0x0 KECCAK256 PUSH1 0x0 DUP7 PUSH20 0xFFFFFFFFFFFFFFFFFFFFFFFFFFFFFFFFFFFFFFFF AND PUSH4 0xFC0C546A PUSH1 0x40 MLOAD DUP2 PUSH4 0xFFFFFFFF AND PUSH1 0xE0 SHL DUP2 MSTORE PUSH1 0x4 ADD PUSH1 0x20 PUSH1 0x40 MLOAD DUP1 DUP4 SUB DUP2 DUP7 GAS STATICCALL ISZERO DUP1 ISZERO PUSH3 0x49B JUMPI RETURNDATASIZE PUSH1 0x0 DUP1 RETURNDATACOPY RETURNDATASIZE PUSH1 0x0 REVERT JUMPDEST POP POP POP POP PUSH1 0x40 MLOAD RETURNDATASIZE PUSH1 0x1F NOT PUSH1 0x1F DUP3 ADD AND DUP3 ADD DUP1 PUSH1 0x40 MSTORE POP DUP2 ADD SWAP1 PUSH3 0x4C1 SWAP2 SWAP1 PUSH3 0x142B JUMP JUMPDEST PUSH20 0xFFFFFFFFFFFFFFFFFFFFFFFFFFFFFFFFFFFFFFFF AND PUSH20 0xFFFFFFFFFFFFFFFFFFFFFFFFFFFFFFFFFFFFFFFF AND DUP2 MSTORE PUSH1 0x20 ADD SWAP1 DUP2 MSTORE PUSH1 0x20 ADD PUSH1 0x0 KECCAK256 PUSH1 0x0 DUP3 DUP3 SLOAD PUSH3 0x50C SWAP2 SWAP1 PUSH3 0x1524 JUMP JUMPDEST SWAP3 POP POP DUP2 SWAP1 SSTORE POP DUP4 PUSH20 0xFFFFFFFFFFFFFFFFFFFFFFFFFFFFFFFFFFFFFFFF AND PUSH4 0x3D13F874 DUP11 DUP6 DUP6 DUP6 PUSH1 0x40 MLOAD DUP6 PUSH4 0xFFFFFFFF AND PUSH1 0xE0 SHL DUP2 MSTORE PUSH1 0x4 ADD PUSH3 0x554 SWAP5 SWAP4 SWAP3 SWAP2 SWAP1 PUSH3 0x15E1 JUMP JUMPDEST PUSH1 0x0 PUSH1 0x40 MLOAD DUP1 DUP4 SUB DUP2 PUSH1 0x0 DUP8 DUP1 EXTCODESIZE ISZERO DUP1 ISZERO PUSH3 0x56F JUMPI PUSH1 0x0 DUP1 REVERT JUMPDEST POP GAS CALL ISZERO DUP1 ISZERO PUSH3 0x584 JUMPI RETURNDATASIZE PUSH1 0x0 DUP1 RETURNDATACOPY RETURNDATASIZE PUSH1 0x0 REVERT JUMPDEST POP POP POP POP POP POP POP POP DUP1 DUP1 PUSH3 0x599 SWAP1 PUSH3 0x1627 JUMP JUMPDEST SWAP2 POP POP PUSH3 0x1CD JUMP JUMPDEST POP POP POP POP POP POP JUMP JUMPDEST PUSH1 0x2 PUSH1 0x20 MSTORE DUP2 PUSH1 0x0 MSTORE PUSH1 0x40 PUSH1 0x0 KECCAK256 PUSH1 0x20 MSTORE DUP1 PUSH1 0x0 MSTORE PUSH1 0x40 PUSH1 0x0 KECCAK256 PUSH1 0x0 SWAP2 POP SWAP2 POP POP SLOAD DUP2 JUMP JUMPDEST PUSH1 0x60 PUSH1 0x1 DUP1 SLOAD DUP1 PUSH1 0x20 MUL PUSH1 0x20 ADD PUSH1 0x40 MLOAD SWAP1 DUP2 ADD PUSH1 0x40 MSTORE DUP1 SWAP3 SWAP2 SWAP1 DUP2 DUP2 MSTORE PUSH1 0x20 ADD DUP3 DUP1 SLOAD DUP1 ISZERO PUSH3 0x655 JUMPI PUSH1 0x20 MUL DUP3 ADD SWAP2 SWAP1 PUSH1 0x0 MSTORE PUSH1 0x20 PUSH1 0x0 KECCAK256 SWAP1 JUMPDEST DUP2 PUSH1 0x0 SWAP1 SLOAD SWAP1 PUSH2 0x100 EXP SWAP1 DIV PUSH20 0xFFFFFFFFFFFFFFFFFFFFFFFFFFFFFFFFFFFFFFFF AND PUSH20 0xFFFFFFFFFFFFFFFFFFFFFFFFFFFFFFFFFFFFFFFF AND DUP2 MSTORE PUSH1 0x20 ADD SWAP1 PUSH1 0x1 ADD SWAP1 DUP1 DUP4 GT PUSH3 0x60A JUMPI JUMPDEST POP POP POP POP POP SWAP1 POP SWAP1 JUMP JUMPDEST PUSH1 0x1 DUP2 DUP2 SLOAD DUP2 LT PUSH3 0x670 JUMPI PUSH1 0x0 DUP1 REVERT JUMPDEST SWAP1 PUSH1 0x0 MSTORE PUSH1 0x20 PUSH1 0x0 KECCAK256 ADD PUSH1 0x0 SWAP2 POP SLOAD SWAP1 PUSH2 0x100 EXP SWAP1 DIV PUSH20 0xFFFFFFFFFFFFFFFFFFFFFFFFFFFFFFFFFFFFFFFF AND DUP2 JUMP JUMPDEST PUSH1 0x0 PUSH1 0x20 MSTORE DUP1 PUSH1 0x0 MSTORE PUSH1 0x40 PUSH1 0x0 KECCAK256 PUSH1 0x0 SWAP2 POP SLOAD SWAP1 PUSH2 0x100 EXP SWAP1 DIV PUSH1 0xFF AND DUP2 JUMP JUMPDEST DUP1 DUP4 PUSH20 0xFFFFFFFFFFFFFFFFFFFFFFFFFFFFFFFFFFFFFFFF AND PUSH4 0x70A08231 CALLER PUSH1 0x40 MLOAD DUP3 PUSH4 0xFFFFFFFF AND PUSH1 0xE0 SHL DUP2 MSTORE PUSH1 0x4 ADD PUSH3 0x6FB SWAP2 SWAP1 PUSH3 0x1155 JUMP JUMPDEST PUSH1 0x20 PUSH1 0x40 MLOAD DUP1 DUP4 SUB DUP2 DUP7 GAS STATICCALL ISZERO DUP1 ISZERO PUSH3 0x719 JUMPI RETURNDATASIZE PUSH1 0x0 DUP1 RETURNDATACOPY RETURNDATASIZE PUSH1 0x0 REVERT JUMPDEST POP POP POP POP PUSH1 0x40 MLOAD RETURNDATASIZE PUSH1 0x1F NOT PUSH1 0x1F DUP3 ADD AND DUP3 ADD DUP1 PUSH1 0x40 MSTORE POP DUP2 ADD SWAP1 PUSH3 0x73F SWAP2 SWAP1 PUSH3 0x168B JUMP JUMPDEST LT ISZERO PUSH3 0x783 JUMPI PUSH1 0x40 MLOAD PUSH32 0x8C379A000000000000000000000000000000000000000000000000000000000 DUP2 MSTORE PUSH1 0x4 ADD PUSH3 0x77A SWAP1 PUSH3 0x1733 JUMP JUMPDEST PUSH1 0x40 MLOAD DUP1 SWAP2 SUB SWAP1 REVERT JUMPDEST PUSH1 0x0 DUP1 DUP5 PUSH20 0xFFFFFFFFFFFFFFFFFFFFFFFFFFFFFFFFFFFFFFFF AND PUSH20 0xFFFFFFFFFFFFFFFFFFFFFFFFFFFFFFFFFFFFFFFF AND DUP2 MSTORE PUSH1 0x20 ADD SWAP1 DUP2 MSTORE PUSH1 0x20 ADD PUSH1 0x0 KECCAK256 PUSH1 0x0 SWAP1 SLOAD SWAP1 PUSH2 0x100 EXP SWAP1 DIV PUSH1 0xFF AND ISZERO PUSH3 0x812 JUMPI PUSH1 0x40 MLOAD PUSH32 0x8C379A000000000000000000000000000000000000000000000000000000000 DUP2 MSTORE PUSH1 0x4 ADD PUSH3 0x809 SWAP1 PUSH3 0x17CB JUMP JUMPDEST PUSH1 0x40 MLOAD DUP1 SWAP2 SUB SWAP1 REVERT JUMPDEST DUP3 PUSH20 0xFFFFFFFFFFFFFFFFFFFFFFFFFFFFFFFFFFFFFFFF AND PUSH4 0x23B872DD CALLER ADDRESS DUP5 PUSH1 0x40 MLOAD DUP5 PUSH4 0xFFFFFFFF AND PUSH1 0xE0 SHL DUP2 MSTORE PUSH1 0x4 ADD PUSH3 0x851 SWAP4 SWAP3 SWAP2 SWAP1 PUSH3 0x17ED JUMP JUMPDEST PUSH1 0x20 PUSH1 0x40 MLOAD DUP1 DUP4 SUB DUP2 PUSH1 0x0 DUP8 GAS CALL ISZERO DUP1 ISZERO PUSH3 0x871 JUMPI RETURNDATASIZE PUSH1 0x0 DUP1 RETURNDATACOPY RETURNDATASIZE PUSH1 0x0 REVERT JUMPDEST POP POP POP POP PUSH1 0x40 MLOAD RETURNDATASIZE PUSH1 0x1F NOT PUSH1 0x1F DUP3 ADD AND DUP3 ADD DUP1 PUSH1 0x40 MSTORE POP DUP2 ADD SWAP1 PUSH3 0x897 SWAP2 SWAP1 PUSH3 0x185B JUMP JUMPDEST POP PUSH1 0x0 DUP4 DUP4 DUP4 PUSH1 0x40 MLOAD PUSH3 0x8AB SWAP1 PUSH3 0xB66 JUMP JUMPDEST PUSH3 0x8B9 SWAP4 SWAP3 SWAP2 SWAP1 PUSH3 0x189E JUMP JUMPDEST PUSH1 0x40 MLOAD DUP1 SWAP2 SUB SWAP1 PUSH1 0x0 CREATE DUP1 ISZERO DUP1 ISZERO PUSH3 0x8D6 JUMPI RETURNDATASIZE PUSH1 0x0 DUP1 RETURNDATACOPY RETURNDATASIZE PUSH1 0x0 REVERT JUMPDEST POP SWAP1 POP DUP4 PUSH20 0xFFFFFFFFFFFFFFFFFFFFFFFFFFFFFFFFFFFFFFFF AND PUSH4 0xA9059CBB DUP3 DUP5 PUSH1 0x40 MLOAD DUP4 PUSH4 0xFFFFFFFF AND PUSH1 0xE0 SHL DUP2 MSTORE PUSH1 0x4 ADD PUSH3 0x916 SWAP3 SWAP2 SWAP1 PUSH3 0x18DB JUMP JUMPDEST PUSH1 0x20 PUSH1 0x40 MLOAD DUP1 DUP4 SUB DUP2 PUSH1 0x0 DUP8 GAS CALL ISZERO DUP1 ISZERO PUSH3 0x936 JUMPI RETURNDATASIZE PUSH1 0x0 DUP1 RETURNDATACOPY RETURNDATASIZE PUSH1 0x0 REVERT JUMPDEST POP POP POP POP PUSH1 0x40 MLOAD RETURNDATASIZE PUSH1 0x1F NOT PUSH1 0x1F DUP3 ADD AND DUP3 ADD DUP1 PUSH1 0x40 MSTORE POP DUP2 ADD SWAP1 PUSH3 0x95C SWAP2 SWAP1 PUSH3 0x185B JUMP JUMPDEST POP PUSH1 0x1 PUSH1 0x0 DUP1 DUP7 PUSH20 0xFFFFFFFFFFFFFFFFFFFFFFFFFFFFFFFFFFFFFFFF AND PUSH20 0xFFFFFFFFFFFFFFFFFFFFFFFFFFFFFFFFFFFFFFFF AND DUP2 MSTORE PUSH1 0x20 ADD SWAP1 DUP2 MSTORE PUSH1 0x20 ADD PUSH1 0x0 KECCAK256 PUSH1 0x0 PUSH2 0x100 EXP DUP2 SLOAD DUP2 PUSH1 0xFF MUL NOT AND SWAP1 DUP4 ISZERO ISZERO MUL OR SWAP1 SSTORE POP PUSH1 0x1 PUSH1 0x0 DUP1 DUP4 PUSH20 0xFFFFFFFFFFFFFFFFFFFFFFFFFFFFFFFFFFFFFFFF AND PUSH20 0xFFFFFFFFFFFFFFFFFFFFFFFFFFFFFFFFFFFFFFFF AND DUP2 MSTORE PUSH1 0x20 ADD SWAP1 DUP2 MSTORE PUSH1 0x20 ADD PUSH1 0x0 KECCAK256 PUSH1 0x0 PUSH2 0x100 EXP DUP2 SLOAD DUP2 PUSH1 0xFF MUL NOT AND SWAP1 DUP4 ISZERO ISZERO MUL OR SWAP1 SSTORE POP PUSH1 0x1 DUP2 SWAP1 DUP1 PUSH1 0x1 DUP2 SLOAD ADD DUP1 DUP3 SSTORE DUP1 SWAP2 POP POP PUSH1 0x1 SWAP1 SUB SWAP1 PUSH1 0x0 MSTORE PUSH1 0x20 PUSH1 0x0 KECCAK256 ADD PUSH1 0x0 SWAP1 SWAP2 SWAP1 SWAP2 SWAP1 SWAP2 PUSH2 0x100 EXP DUP2 SLOAD DUP2 PUSH20 0xFFFFFFFFFFFFFFFFFFFFFFFFFFFFFFFFFFFFFFFF MUL NOT AND SWAP1 DUP4 PUSH20 0xFFFFFFFFFFFFFFFFFFFFFFFFFFFFFFFFFFFFFFFF AND MUL OR SWAP1 SSTORE POP DUP2 PUSH1 0x2 PUSH1 0x0 DUP4 PUSH20 0xFFFFFFFFFFFFFFFFFFFFFFFFFFFFFFFFFFFFFFFF AND PUSH20 0xFFFFFFFFFFFFFFFFFFFFFFFFFFFFFFFFFFFFFFFF AND DUP2 MSTORE PUSH1 0x20 ADD SWAP1 DUP2 MSTORE PUSH1 0x20 ADD PUSH1 0x0 KECCAK256 PUSH1 0x0 DUP7 PUSH20 0xFFFFFFFFFFFFFFFFFFFFFFFFFFFFFFFFFFFFFFFF AND PUSH20 0xFFFFFFFFFFFFFFFFFFFFFFFFFFFFFFFFFFFFFFFF AND DUP2 MSTORE PUSH1 0x20 ADD SWAP1 DUP2 MSTORE PUSH1 0x20 ADD PUSH1 0x0 KECCAK256 DUP2 SWAP1 SSTORE POP DUP4 PUSH20 0xFFFFFFFFFFFFFFFFFFFFFFFFFFFFFFFFFFFFFFFF AND CALLER PUSH20 0xFFFFFFFFFFFFFFFFFFFFFFFFFFFFFFFFFFFFFFFF AND DUP3 PUSH20 0xFFFFFFFFFFFFFFFFFFFFFFFFFFFFFFFFFFFFFFFF AND PUSH32 0xA2CCEB60A276E698E370384A6D8D9B143CB5BE6A57B3E0F27DFD0F5AB7108ED6 PUSH1 0x40 MLOAD PUSH1 0x40 MLOAD DUP1 SWAP2 SUB SWAP1 LOG4 POP POP POP POP JUMP JUMPDEST PUSH2 0xBAC DUP1 PUSH3 0x1909 DUP4 CODECOPY ADD SWAP1 JUMP JUMPDEST PUSH1 0x0 PUSH1 0x40 MLOAD SWAP1 POP SWAP1 JUMP JUMPDEST PUSH1 0x0 DUP1 REVERT JUMPDEST PUSH1 0x0 DUP1 REVERT JUMPDEST PUSH1 0x0 DUP1 REVERT JUMPDEST PUSH1 0x0 PUSH1 0x1F NOT PUSH1 0x1F DUP4 ADD AND SWAP1 POP SWAP2 SWAP1 POP JUMP JUMPDEST PUSH32 0x4E487B7100000000000000000000000000000000000000000000000000000000 PUSH1 0x0 MSTORE PUSH1 0x41 PUSH1 0x4 MSTORE PUSH1 0x24 PUSH1 0x0 REVERT JUMPDEST PUSH3 0xBD8 DUP3 PUSH3 0xB8D JUMP JUMPDEST DUP2 ADD DUP2 DUP2 LT PUSH8 0xFFFFFFFFFFFFFFFF DUP3 GT OR ISZERO PUSH3 0xBFA JUMPI PUSH3 0xBF9 PUSH3 0xB9E JUMP JUMPDEST JUMPDEST DUP1 PUSH1 0x40 MSTORE POP POP POP JUMP JUMPDEST PUSH1 0x0 PUSH3 0xC0F PUSH3 0xB74 JUMP JUMPDEST SWAP1 POP PUSH3 0xC1D DUP3 DUP3 PUSH3 0xBCD JUMP JUMPDEST SWAP2 SWAP1 POP JUMP JUMPDEST PUSH1 0x0 PUSH8 0xFFFFFFFFFFFFFFFF DUP3 GT ISZERO PUSH3 0xC40 JUMPI PUSH3 0xC3F PUSH3 0xB9E JUMP JUMPDEST JUMPDEST PUSH1 0x20 DUP3 MUL SWAP1 POP PUSH1 0x20 DUP2 ADD SWAP1 POP SWAP2 SWAP1 POP JUMP JUMPDEST PUSH1 0x0 DUP1 REVERT JUMPDEST PUSH1 0x0 PUSH20 0xFFFFFFFFFFFFFFFFFFFFFFFFFFFFFFFFFFFFFFFF DUP3 AND SWAP1 POP SWAP2 SWAP1 POP JUMP JUMPDEST PUSH1 0x0 PUSH3 0xC83 DUP3 PUSH3 0xC56 JUMP JUMPDEST SWAP1 POP SWAP2 SWAP1 POP JUMP JUMPDEST PUSH3 0xC95 DUP2 PUSH3 0xC76 JUMP JUMPDEST DUP2 EQ PUSH3 0xCA1 JUMPI PUSH1 0x0 DUP1 REVERT JUMPDEST POP JUMP JUMPDEST PUSH1 0x0 DUP2 CALLDATALOAD SWAP1 POP PUSH3 0xCB5 DUP2 PUSH3 0xC8A JUMP JUMPDEST SWAP3 SWAP2 POP POP JUMP JUMPDEST PUSH1 0x0 PUSH3 0xCD2 PUSH3 0xCCC DUP5 PUSH3 0xC22 JUMP JUMPDEST PUSH3 0xC03 JUMP JUMPDEST SWAP1 POP DUP1 DUP4 DUP3 MSTORE PUSH1 0x20 DUP3 ADD SWAP1 POP PUSH1 0x20 DUP5 MUL DUP4 ADD DUP6 DUP2 GT ISZERO PUSH3 0xCF8 JUMPI PUSH3 0xCF7 PUSH3 0xC51 JUMP JUMPDEST JUMPDEST DUP4 JUMPDEST DUP2 DUP2 LT ISZERO PUSH3 0xD25 JUMPI DUP1 PUSH3 0xD10 DUP9 DUP3 PUSH3 0xCA4 JUMP JUMPDEST DUP5 MSTORE PUSH1 0x20 DUP5 ADD SWAP4 POP POP PUSH1 0x20 DUP2 ADD SWAP1 POP PUSH3 0xCFA JUMP JUMPDEST POP POP POP SWAP4 SWAP3 POP POP POP JUMP JUMPDEST PUSH1 0x0 DUP3 PUSH1 0x1F DUP4 ADD SLT PUSH3 0xD47 JUMPI PUSH3 0xD46 PUSH3 0xB88 JUMP JUMPDEST JUMPDEST DUP2 CALLDATALOAD PUSH3 0xD59 DUP5 DUP3 PUSH1 0x20 DUP7 ADD PUSH3 0xCBB JUMP JUMPDEST SWAP2 POP POP SWAP3 SWAP2 POP POP JUMP JUMPDEST PUSH1 0x0 PUSH8 0xFFFFFFFFFFFFFFFF DUP3 GT ISZERO PUSH3 0xD80 JUMPI PUSH3 0xD7F PUSH3 0xB9E JUMP JUMPDEST JUMPDEST PUSH1 0x20 DUP3 MUL SWAP1 POP PUSH1 0x20 DUP2 ADD SWAP1 POP SWAP2 SWAP1 POP JUMP JUMPDEST PUSH1 0x0 DUP2 SWAP1 POP SWAP2 SWAP1 POP JUMP JUMPDEST PUSH3 0xDA6 DUP2 PUSH3 0xD91 JUMP JUMPDEST DUP2 EQ PUSH3 0xDB2 JUMPI PUSH1 0x0 DUP1 REVERT JUMPDEST POP JUMP JUMPDEST PUSH1 0x0 DUP2 CALLDATALOAD SWAP1 POP PUSH3 0xDC6 DUP2 PUSH3 0xD9B JUMP JUMPDEST SWAP3 SWAP2 POP POP JUMP JUMPDEST PUSH1 0x0 PUSH3 0xDE3 PUSH3 0xDDD DUP5 PUSH3 0xD62 JUMP JUMPDEST PUSH3 0xC03 JUMP JUMPDEST SWAP1 POP DUP1 DUP4 DUP3 MSTORE PUSH1 0x20 DUP3 ADD SWAP1 POP PUSH1 0x20 DUP5 MUL DUP4 ADD DUP6 DUP2 GT ISZERO PUSH3 0xE09 JUMPI PUSH3 0xE08 PUSH3 0xC51 JUMP JUMPDEST JUMPDEST DUP4 JUMPDEST DUP2 DUP2 LT ISZERO PUSH3 0xE36 JUMPI DUP1 PUSH3 0xE21 DUP9 DUP3 PUSH3 0xDB5 JUMP JUMPDEST DUP5 MSTORE PUSH1 0x20 DUP5 ADD SWAP4 POP POP PUSH1 0x20 DUP2 ADD SWAP1 POP PUSH3 0xE0B JUMP JUMPDEST POP POP POP SWAP4 SWAP3 POP POP POP JUMP JUMPDEST PUSH1 0x0 DUP3 PUSH1 0x1F DUP4 ADD SLT PUSH3 0xE58 JUMPI PUSH3 0xE57 PUSH3 0xB88 JUMP JUMPDEST JUMPDEST DUP2 CALLDATALOAD PUSH3 0xE6A DUP5 DUP3 PUSH1 0x20 DUP7 ADD PUSH3 0xDCC JUMP JUMPDEST SWAP2 POP POP SWAP3 SWAP2 POP POP JUMP JUMPDEST PUSH1 0x0 DUP1 REVERT JUMPDEST PUSH1 0x0 DUP1 DUP4 PUSH1 0x1F DUP5 ADD SLT PUSH3 0xE91 JUMPI PUSH3 0xE90 PUSH3 0xB88 JUMP JUMPDEST JUMPDEST DUP3 CALLDATALOAD SWAP1 POP PUSH8 0xFFFFFFFFFFFFFFFF DUP2 GT ISZERO PUSH3 0xEB1 JUMPI PUSH3 0xEB0 PUSH3 0xE73 JUMP JUMPDEST JUMPDEST PUSH1 0x20 DUP4 ADD SWAP2 POP DUP4 PUSH1 0x20 DUP3 MUL DUP4 ADD GT ISZERO PUSH3 0xED0 JUMPI PUSH3 0xECF PUSH3 0xC51 JUMP JUMPDEST JUMPDEST SWAP3 POP SWAP3 SWAP1 POP JUMP JUMPDEST PUSH1 0x0 DUP1 PUSH1 0x0 DUP1 PUSH1 0x0 PUSH1 0x80 DUP7 DUP9 SUB SLT ISZERO PUSH3 0xEF6 JUMPI PUSH3 0xEF5 PUSH3 0xB7E JUMP JUMPDEST JUMPDEST PUSH1 0x0 DUP7 ADD CALLDATALOAD PUSH8 0xFFFFFFFFFFFFFFFF DUP2 GT ISZERO PUSH3 0xF17 JUMPI PUSH3 0xF16 PUSH3 0xB83 JUMP JUMPDEST JUMPDEST PUSH3 0xF25 DUP9 DUP3 DUP10 ADD PUSH3 0xD2F JUMP JUMPDEST SWAP6 POP POP PUSH1 0x20 PUSH3 0xF38 DUP9 DUP3 DUP10 ADD PUSH3 0xCA4 JUMP JUMPDEST SWAP5 POP POP PUSH1 0x40 DUP7 ADD CALLDATALOAD PUSH8 0xFFFFFFFFFFFFFFFF DUP2 GT ISZERO PUSH3 0xF5C JUMPI PUSH3 0xF5B PUSH3 0xB83 JUMP JUMPDEST JUMPDEST PUSH3 0xF6A DUP9 DUP3 DUP10 ADD PUSH3 0xE40 JUMP JUMPDEST SWAP4 POP POP PUSH1 0x60 DUP7 ADD CALLDATALOAD PUSH8 0xFFFFFFFFFFFFFFFF DUP2 GT ISZERO PUSH3 0xF8E JUMPI PUSH3 0xF8D PUSH3 0xB83 JUMP JUMPDEST JUMPDEST PUSH3 0xF9C DUP9 DUP3 DUP10 ADD PUSH3 0xE78 JUMP JUMPDEST SWAP3 POP SWAP3 POP POP SWAP3 SWAP6 POP SWAP3 SWAP6 SWAP1 SWAP4 POP JUMP JUMPDEST PUSH1 0x0 DUP1 PUSH1 0x40 DUP4 DUP6 SUB SLT ISZERO PUSH3 0xFC5 JUMPI PUSH3 0xFC4 PUSH3 0xB7E JUMP JUMPDEST JUMPDEST PUSH1 0x0 PUSH3 0xFD5 DUP6 DUP3 DUP7 ADD PUSH3 0xCA4 JUMP JUMPDEST SWAP3 POP POP PUSH1 0x20 PUSH3 0xFE8 DUP6 DUP3 DUP7 ADD PUSH3 0xCA4 JUMP JUMPDEST SWAP2 POP POP SWAP3 POP SWAP3 SWAP1 POP JUMP JUMPDEST PUSH3 0xFFD DUP2 PUSH3 0xD91 JUMP JUMPDEST DUP3 MSTORE POP POP JUMP JUMPDEST PUSH1 0x0 PUSH1 0x20 DUP3 ADD SWAP1 POP PUSH3 0x101A PUSH1 0x0 DUP4 ADD DUP5 PUSH3 0xFF2 JUMP JUMPDEST SWAP3 SWAP2 POP POP JUMP JUMPDEST PUSH1 0x0 DUP2 MLOAD SWAP1 POP SWAP2 SWAP1 POP JUMP JUMPDEST PUSH1 0x0 DUP3 DUP3 MSTORE PUSH1 0x20 DUP3 ADD SWAP1 POP SWAP3 SWAP2 POP POP JUMP JUMPDEST PUSH1 0x0 DUP2 SWAP1 POP PUSH1 0x20 DUP3 ADD SWAP1 POP SWAP2 SWAP1 POP JUMP JUMPDEST PUSH3 0x1057 DUP2 PUSH3 0xC76 JUMP JUMPDEST DUP3 MSTORE POP POP JUMP JUMPDEST PUSH1 0x0 PUSH3 0x106B DUP4 DUP4 PUSH3 0x104C JUMP JUMPDEST PUSH1 0x20 DUP4 ADD SWAP1 POP SWAP3 SWAP2 POP POP JUMP JUMPDEST PUSH1 0x0 PUSH1 0x20 DUP3 ADD SWAP1 POP SWAP2 SWAP1 POP JUMP JUMPDEST PUSH1 0x0 PUSH3 0x1091 DUP3 PUSH3 0x1020 JUMP JUMPDEST PUSH3 0x109D DUP2 DUP6 PUSH3 0x102B JUMP JUMPDEST SWAP4 POP PUSH3 0x10AA DUP4 PUSH3 0x103C JUMP JUMPDEST DUP1 PUSH1 0x0 JUMPDEST DUP4 DUP2 LT ISZERO PUSH3 0x10E1 JUMPI DUP2 MLOAD PUSH3 0x10C5 DUP9 DUP3 PUSH3 0x105D JUMP JUMPDEST SWAP8 POP PUSH3 0x10D2 DUP4 PUSH3 0x1077 JUMP JUMPDEST SWAP3 POP POP PUSH1 0x1 DUP2 ADD SWAP1 POP PUSH3 0x10AE JUMP JUMPDEST POP DUP6 SWAP4 POP POP POP POP SWAP3 SWAP2 POP POP JUMP JUMPDEST PUSH1 0x0 PUSH1 0x20 DUP3 ADD SWAP1 POP DUP2 DUP2 SUB PUSH1 0x0 DUP4 ADD MSTORE PUSH3 0x110A DUP2 DUP5 PUSH3 0x1084 JUMP JUMPDEST SWAP1 POP SWAP3 SWAP2 POP POP JUMP JUMPDEST PUSH1 0x0 PUSH1 0x20 DUP3 DUP5 SUB SLT ISZERO PUSH3 0x112B JUMPI PUSH3 0x112A PUSH3 0xB7E JUMP JUMPDEST JUMPDEST PUSH1 0x0 PUSH3 0x113B DUP5 DUP3 DUP6 ADD PUSH3 0xDB5 JUMP JUMPDEST SWAP2 POP POP SWAP3 SWAP2 POP POP JUMP JUMPDEST PUSH3 0x114F DUP2 PUSH3 0xC76 JUMP JUMPDEST DUP3 MSTORE POP POP JUMP JUMPDEST PUSH1 0x0 PUSH1 0x20 DUP3 ADD SWAP1 POP PUSH3 0x116C PUSH1 0x0 DUP4 ADD DUP5 PUSH3 0x1144 JUMP JUMPDEST SWAP3 SWAP2 POP POP JUMP JUMPDEST PUSH1 0x0 PUSH1 0x20 DUP3 DUP5 SUB SLT ISZERO PUSH3 0x118B JUMPI PUSH3 0x118A PUSH3 0xB7E JUMP JUMPDEST JUMPDEST PUSH1 0x0 PUSH3 0x119B DUP5 DUP3 DUP6 ADD PUSH3 0xCA4 JUMP JUMPDEST SWAP2 POP POP SWAP3 SWAP2 POP POP JUMP JUMPDEST PUSH1 0x0 DUP2 ISZERO ISZERO SWAP1 POP SWAP2 SWAP1 POP JUMP JUMPDEST PUSH3 0x11BB DUP2 PUSH3 0x11A4 JUMP JUMPDEST DUP3 MSTORE POP POP JUMP JUMPDEST PUSH1 0x0 PUSH1 0x20 DUP3 ADD SWAP1 POP PUSH3 0x11D8 PUSH1 0x0 DUP4 ADD DUP5 PUSH3 0x11B0 JUMP JUMPDEST SWAP3 SWAP2 POP POP JUMP JUMPDEST PUSH1 0x0 DUP2 SWAP1 POP SWAP2 SWAP1 POP JUMP JUMPDEST PUSH3 0x11F3 DUP2 PUSH3 0x11DE JUMP JUMPDEST DUP2 EQ PUSH3 0x11FF JUMPI PUSH1 0x0 DUP1 REVERT JUMPDEST POP JUMP JUMPDEST PUSH1 0x0 DUP2 CALLDATALOAD SWAP1 POP PUSH3 0x1213 DUP2 PUSH3 0x11E8 JUMP JUMPDEST SWAP3 SWAP2 POP POP JUMP JUMPDEST PUSH1 0x0 DUP1 PUSH1 0x0 PUSH1 0x60 DUP5 DUP7 SUB SLT ISZERO PUSH3 0x1235 JUMPI PUSH3 0x1234 PUSH3 0xB7E JUMP JUMPDEST JUMPDEST PUSH1 0x0 PUSH3 0x1245 DUP7 DUP3 DUP8 ADD PUSH3 0xCA4 JUMP JUMPDEST SWAP4 POP POP PUSH1 0x20 PUSH3 0x1258 DUP7 DUP3 DUP8 ADD PUSH3 0x1202 JUMP JUMPDEST SWAP3 POP POP PUSH1 0x40 PUSH3 0x126B DUP7 DUP3 DUP8 ADD PUSH3 0xDB5 JUMP JUMPDEST SWAP2 POP POP SWAP3 POP SWAP3 POP SWAP3 JUMP JUMPDEST PUSH1 0x0 DUP3 DUP3 MSTORE PUSH1 0x20 DUP3 ADD SWAP1 POP SWAP3 SWAP2 POP POP JUMP JUMPDEST PUSH32 0x4172726179206C656E677468206D69736D617463680000000000000000000000 PUSH1 0x0 DUP3 ADD MSTORE POP JUMP JUMPDEST PUSH1 0x0 PUSH3 0x12BE PUSH1 0x15 DUP4 PUSH3 0x1275 JUMP JUMPDEST SWAP2 POP PUSH3 0x12CB DUP3 PUSH3 0x1286 JUMP JUMPDEST PUSH1 0x20 DUP3 ADD SWAP1 POP SWAP2 SWAP1 POP JUMP JUMPDEST PUSH1 0x0 PUSH1 0x20 DUP3 ADD SWAP1 POP DUP2 DUP2 SUB PUSH1 0x0 DUP4 ADD MSTORE PUSH3 0x12F1 DUP2 PUSH3 0x12AF JUMP JUMPDEST SWAP1 POP SWAP2 SWAP1 POP JUMP JUMPDEST PUSH32 0x4E487B7100000000000000000000000000000000000000000000000000000000 PUSH1 0x0 MSTORE PUSH1 0x32 PUSH1 0x4 MSTORE PUSH1 0x24 PUSH1 0x0 REVERT JUMPDEST PUSH1 0x0 DUP1 REVERT JUMPDEST PUSH1 0x0 DUP1 REVERT JUMPDEST PUSH1 0x0 DUP1 REVERT JUMPDEST PUSH1 0x0 DUP1 DUP4 CALLDATALOAD PUSH1 0x1 PUSH1 0x20 SUB DUP5 CALLDATASIZE SUB SUB DUP2 SLT PUSH3 0x1356 JUMPI PUSH3 0x1355 PUSH3 0x1327 JUMP JUMPDEST JUMPDEST DUP1 DUP5 ADD SWAP3 POP DUP3 CALLDATALOAD SWAP2 POP PUSH8 0xFFFFFFFFFFFFFFFF DUP3 GT ISZERO PUSH3 0x137B JUMPI PUSH3 0x137A PUSH3 0x132C JUMP JUMPDEST JUMPDEST PUSH1 0x20 DUP4 ADD SWAP3 POP PUSH1 0x20 DUP3 MUL CALLDATASIZE SUB DUP4 SGT ISZERO PUSH3 0x139A JUMPI PUSH3 0x1399 PUSH3 0x1331 JUMP JUMPDEST JUMPDEST POP SWAP3 POP SWAP3 SWAP1 POP JUMP JUMPDEST PUSH32 0x496E76616C6964206469737472696275746F7220636F6E747261637400000000 PUSH1 0x0 DUP3 ADD MSTORE POP JUMP JUMPDEST PUSH1 0x0 PUSH3 0x13DA PUSH1 0x1C DUP4 PUSH3 0x1275 JUMP JUMPDEST SWAP2 POP PUSH3 0x13E7 DUP3 PUSH3 0x13A2 JUMP JUMPDEST PUSH1 0x20 DUP3 ADD SWAP1 POP SWAP2 SWAP1 POP JUMP JUMPDEST PUSH1 0x0 PUSH1 0x20 DUP3 ADD SWAP1 POP DUP2 DUP2 SUB PUSH1 0x0 DUP4 ADD MSTORE PUSH3 0x140D DUP2 PUSH3 0x13CB JUMP JUMPDEST SWAP1 POP SWAP2 SWAP1 POP JUMP JUMPDEST PUSH1 0x0 DUP2 MLOAD SWAP1 POP PUSH3 0x1425 DUP2 PUSH3 0xC8A JUMP JUMPDEST SWAP3 SWAP2 POP POP JUMP JUMPDEST PUSH1 0x0 PUSH1 0x20 DUP3 DUP5 SUB SLT ISZERO PUSH3 0x1444 JUMPI PUSH3 0x1443 PUSH3 0xB7E JUMP JUMPDEST JUMPDEST PUSH1 0x0 PUSH3 0x1454 DUP5 DUP3 DUP6 ADD PUSH3 0x1414 JUMP JUMPDEST SWAP2 POP POP SWAP3 SWAP2 POP POP JUMP JUMPDEST PUSH32 0x496E73756666696369656E7420746F6B656E2062616C616E636520666F722064 PUSH1 0x0 DUP3 ADD MSTORE PUSH32 0x69737472696275746F7200000000000000000000000000000000000000000000 PUSH1 0x20 DUP3 ADD MSTORE POP JUMP JUMPDEST PUSH1 0x0 PUSH3 0x14BB PUSH1 0x2A DUP4 PUSH3 0x1275 JUMP JUMPDEST SWAP2 POP PUSH3 0x14C8 DUP3 PUSH3 0x145D JUMP JUMPDEST PUSH1 0x40 DUP3 ADD SWAP1 POP SWAP2 SWAP1 POP JUMP JUMPDEST PUSH1 0x0 PUSH1 0x20 DUP3 ADD SWAP1 POP DUP2 DUP2 SUB PUSH1 0x0 DUP4 ADD MSTORE PUSH3 0x14EE DUP2 PUSH3 0x14AC JUMP JUMPDEST SWAP1 POP SWAP2 SWAP1 POP JUMP JUMPDEST PUSH32 0x4E487B7100000000000000000000000000000000000000000000000000000000 PUSH1 0x0 MSTORE PUSH1 0x11 PUSH1 0x4 MSTORE PUSH1 0x24 PUSH1 0x0 REVERT JUMPDEST PUSH1 0x0 PUSH3 0x1531 DUP3 PUSH3 0xD91 JUMP JUMPDEST SWAP2 POP PUSH3 0x153E DUP4 PUSH3 0xD91 JUMP JUMPDEST SWAP3 POP DUP3 DUP3 SUB SWAP1 POP DUP2 DUP2 GT ISZERO PUSH3 0x1559 JUMPI PUSH3 0x1558 PUSH3 0x14F5 JUMP JUMPDEST JUMPDEST SWAP3 SWAP2 POP POP JUMP JUMPDEST PUSH1 0x0 DUP3 DUP3 MSTORE PUSH1 0x20 DUP3 ADD SWAP1 POP SWAP3 SWAP2 POP POP JUMP JUMPDEST PUSH1 0x0 DUP1 REVERT JUMPDEST DUP3 DUP2 DUP4 CALLDATACOPY POP POP POP JUMP JUMPDEST PUSH1 0x0 PUSH3 0x158C DUP4 DUP6 PUSH3 0x155F JUMP JUMPDEST SWAP4 POP PUSH32 0x7FFFFFFFFFFFFFFFFFFFFFFFFFFFFFFFFFFFFFFFFFFFFFFFFFFFFFFFFFFFFFF DUP4 GT ISZERO PUSH3 0x15C2 JUMPI PUSH3 0x15C1 PUSH3 0x1570 JUMP JUMPDEST JUMPDEST PUSH1 0x20 DUP4 MUL SWAP3 POP PUSH3 0x15D5 DUP4 DUP6 DUP5 PUSH3 0x1575 JUMP JUMPDEST DUP3 DUP5 ADD SWAP1 POP SWAP4 SWAP3 POP POP POP JUMP JUMPDEST PUSH1 0x0 PUSH1 0x60 DUP3 ADD SWAP1 POP PUSH3 0x15F8 PUSH1 0x0 DUP4 ADD DUP8 PUSH3 0x1144 JUMP JUMPDEST PUSH3 0x1607 PUSH1 0x20 DUP4 ADD DUP7 PUSH3 0xFF2 JUMP JUMPDEST DUP2 DUP2 SUB PUSH1 0x40 DUP4 ADD MSTORE PUSH3 0x161C DUP2 DUP5 DUP7 PUSH3 0x157E JUMP JUMPDEST SWAP1 POP SWAP6 SWAP5 POP POP POP POP POP JUMP JUMPDEST PUSH1 0x0 PUSH3 0x1634 DUP3 PUSH3 0xD91 JUMP JUMPDEST SWAP2 POP PUSH32 0xFFFFFFFFFFFFFFFFFFFFFFFFFFFFFFFFFFFFFFFFFFFFFFFFFFFFFFFFFFFFFFFF DUP3 SUB PUSH3 0x1669 JUMPI PUSH3 0x1668 PUSH3 0x14F5 JUMP JUMPDEST JUMPDEST PUSH1 0x1 DUP3 ADD SWAP1 POP SWAP2 SWAP1 POP JUMP JUMPDEST PUSH1 0x0 DUP2 MLOAD SWAP1 POP PUSH3 0x1685 DUP2 PUSH3 0xD9B JUMP JUMPDEST SWAP3 SWAP2 POP POP JUMP JUMPDEST PUSH1 0x0 PUSH1 0x20 DUP3 DUP5 SUB SLT ISZERO PUSH3 0x16A4 JUMPI PUSH3 0x16A3 PUSH3 0xB7E JUMP JUMPDEST JUMPDEST PUSH1 0x0 PUSH3 0x16B4 DUP5 DUP3 DUP6 ADD PUSH3 0x1674 JUMP JUMPDEST SWAP2 POP POP SWAP3 SWAP2 POP POP JUMP JUMPDEST PUSH32 0x4D65726B6C654469737472696275746F723A20496E73756666696369656E7420 PUSH1 0x0 DUP3 ADD MSTORE PUSH32 0x62616C616E636500000000000000000000000000000000000000000000000000 PUSH1 0x20 DUP3 ADD MSTORE POP JUMP JUMPDEST PUSH1 0x0 PUSH3 0x171B PUSH1 0x27 DUP4 PUSH3 0x1275 JUMP JUMPDEST SWAP2 POP PUSH3 0x1728 DUP3 PUSH3 0x16BD JUMP JUMPDEST PUSH1 0x40 DUP3 ADD SWAP1 POP SWAP2 SWAP1 POP JUMP JUMPDEST PUSH1 0x0 PUSH1 0x20 DUP3 ADD SWAP1 POP DUP2 DUP2 SUB PUSH1 0x0 DUP4 ADD MSTORE PUSH3 0x174E DUP2 PUSH3 0x170C JUMP JUMPDEST SWAP1 POP SWAP2 SWAP1 POP JUMP JUMPDEST PUSH32 0x4D65726B6C654469737472696275746F7220666F72207468697320746F6B656E PUSH1 0x0 DUP3 ADD MSTORE PUSH32 0x20697320616C7265616479206465706C6F796564000000000000000000000000 PUSH1 0x20 DUP3 ADD MSTORE POP JUMP JUMPDEST PUSH1 0x0 PUSH3 0x17B3 PUSH1 0x34 DUP4 PUSH3 0x1275 JUMP JUMPDEST SWAP2 POP PUSH3 0x17C0 DUP3 PUSH3 0x1755 JUMP JUMPDEST PUSH1 0x40 DUP3 ADD SWAP1 POP SWAP2 SWAP1 POP JUMP JUMPDEST PUSH1 0x0 PUSH1 0x20 DUP3 ADD SWAP1 POP DUP2 DUP2 SUB PUSH1 0x0 DUP4 ADD MSTORE PUSH3 0x17E6 DUP2 PUSH3 0x17A4 JUMP JUMPDEST SWAP1 POP SWAP2 SWAP1 POP JUMP JUMPDEST PUSH1 0x0 PUSH1 0x60 DUP3 ADD SWAP1 POP PUSH3 0x1804 PUSH1 0x0 DUP4 ADD DUP7 PUSH3 0x1144 JUMP JUMPDEST PUSH3 0x1813 PUSH1 0x20 DUP4 ADD DUP6 PUSH3 0x1144 JUMP JUMPDEST PUSH3 0x1822 PUSH1 0x40 DUP4 ADD DUP5 PUSH3 0xFF2 JUMP JUMPDEST SWAP5 SWAP4 POP POP POP POP JUMP JUMPDEST PUSH3 0x1835 DUP2 PUSH3 0x11A4 JUMP JUMPDEST DUP2 EQ PUSH3 0x1841 JUMPI PUSH1 0x0 DUP1 REVERT JUMPDEST POP JUMP JUMPDEST PUSH1 0x0 DUP2 MLOAD SWAP1 POP PUSH3 0x1855 DUP2 PUSH3 0x182A JUMP JUMPDEST SWAP3 SWAP2 POP POP JUMP JUMPDEST PUSH1 0x0 PUSH1 0x20 DUP3 DUP5 SUB SLT ISZERO PUSH3 0x1874 JUMPI PUSH3 0x1873 PUSH3 0xB7E JUMP JUMPDEST JUMPDEST PUSH1 0x0 PUSH3 0x1884 DUP5 DUP3 DUP6 ADD PUSH3 0x1844 JUMP JUMPDEST SWAP2 POP POP SWAP3 SWAP2 POP POP JUMP JUMPDEST PUSH3 0x1898 DUP2 PUSH3 0x11DE JUMP JUMPDEST DUP3 MSTORE POP POP JUMP JUMPDEST PUSH1 0x0 PUSH1 0x60 DUP3 ADD SWAP1 POP PUSH3 0x18B5 PUSH1 0x0 DUP4 ADD DUP7 PUSH3 0x1144 JUMP JUMPDEST PUSH3 0x18C4 PUSH1 0x20 DUP4 ADD DUP6 PUSH3 0x188D JUMP JUMPDEST PUSH3 0x18D3 PUSH1 0x40 DUP4 ADD DUP5 PUSH3 0xFF2 JUMP JUMPDEST SWAP5 SWAP4 POP POP POP POP JUMP JUMPDEST PUSH1 0x0 PUSH1 0x40 DUP3 ADD SWAP1 POP PUSH3 0x18F2 PUSH1 0x0 DUP4 ADD DUP6 PUSH3 0x1144 JUMP JUMPDEST PUSH3 0x1901 PUSH1 0x20 DUP4 ADD DUP5 PUSH3 0xFF2 JUMP JUMPDEST SWAP4 SWAP3 POP POP POP JUMP INVALID PUSH1 0x80 PUSH1 0x40 MSTORE CALLVALUE DUP1 ISZERO PUSH3 0x11 JUMPI PUSH1 0x0 DUP1 REVERT JUMPDEST POP PUSH1 0x40 MLOAD PUSH3 0xBAC CODESIZE SUB DUP1 PUSH3 0xBAC DUP4 CODECOPY DUP2 DUP2 ADD PUSH1 0x40 MSTORE DUP2 ADD SWAP1 PUSH3 0x37 SWAP2 SWAP1 PUSH3 0x16E JUMP JUMPDEST DUP3 PUSH1 0x0 DUP1 PUSH2 0x100 EXP DUP2 SLOAD DUP2 PUSH20 0xFFFFFFFFFFFFFFFFFFFFFFFFFFFFFFFFFFFFFFFF MUL NOT AND SWAP1 DUP4 PUSH20 0xFFFFFFFFFFFFFFFFFFFFFFFFFFFFFFFFFFFFFFFF AND MUL OR SWAP1 SSTORE POP DUP2 PUSH1 0x1 DUP2 SWAP1 SSTORE POP DUP1 PUSH1 0x3 DUP2 SWAP1 SSTORE POP POP POP POP PUSH3 0x1CA JUMP JUMPDEST PUSH1 0x0 DUP1 REVERT JUMPDEST PUSH1 0x0 PUSH20 0xFFFFFFFFFFFFFFFFFFFFFFFFFFFFFFFFFFFFFFFF DUP3 AND SWAP1 POP SWAP2 SWAP1 POP JUMP JUMPDEST PUSH1 0x0 PUSH3 0xC0 DUP3 PUSH3 0x93 JUMP JUMPDEST SWAP1 POP SWAP2 SWAP1 POP JUMP JUMPDEST PUSH3 0xD2 DUP2 PUSH3 0xB3 JUMP JUMPDEST DUP2 EQ PUSH3 0xDE JUMPI PUSH1 0x0 DUP1 REVERT JUMPDEST POP JUMP JUMPDEST PUSH1 0x0 DUP2 MLOAD SWAP1 POP PUSH3 0xF2 DUP2 PUSH3 0xC7 JUMP JUMPDEST SWAP3 SWAP2 POP POP JUMP JUMPDEST PUSH1 0x0 DUP2 SWAP1 POP SWAP2 SWAP1 POP JUMP JUMPDEST PUSH3 0x10D DUP2 PUSH3 0xF8 JUMP JUMPDEST DUP2 EQ PUSH3 0x119 JUMPI PUSH1 0x0 DUP1 REVERT JUMPDEST POP JUMP JUMPDEST PUSH1 0x0 DUP2 MLOAD SWAP1 POP PUSH3 0x12D DUP2 PUSH3 0x102 JUMP JUMPDEST SWAP3 SWAP2 POP POP JUMP JUMPDEST PUSH1 0x0 DUP2 SWAP1 POP SWAP2 SWAP1 POP JUMP JUMPDEST PUSH3 0x148 DUP2 PUSH3 0x133 JUMP JUMPDEST DUP2 EQ PUSH3 0x154 JUMPI PUSH1 0x0 DUP1 REVERT JUMPDEST POP JUMP JUMPDEST PUSH1 0x0 DUP2 MLOAD SWAP1 POP PUSH3 0x168 DUP2 PUSH3 0x13D JUMP JUMPDEST SWAP3 SWAP2 POP POP JUMP JUMPDEST PUSH1 0x0 DUP1 PUSH1 0x0 PUSH1 0x60 DUP5 DUP7 SUB SLT ISZERO PUSH3 0x18A JUMPI PUSH3 0x189 PUSH3 0x8E JUMP JUMPDEST JUMPDEST PUSH1 0x0 PUSH3 0x19A DUP7 DUP3 DUP8 ADD PUSH3 0xE1 JUMP JUMPDEST SWAP4 POP POP PUSH1 0x20 PUSH3 0x1AD DUP7 DUP3 DUP8 ADD PUSH3 0x11C JUMP JUMPDEST SWAP3 POP POP PUSH1 0x40 PUSH3 0x1C0 DUP7 DUP3 DUP8 ADD PUSH3 0x157 JUMP JUMPDEST SWAP2 POP POP SWAP3 POP SWAP3 POP SWAP3 JUMP JUMPDEST PUSH2 0x9D2 DUP1 PUSH3 0x1DA PUSH1 0x0 CODECOPY PUSH1 0x0 RETURN INVALID PUSH1 0x80 PUSH1 0x40 MSTORE CALLVALUE DUP1 ISZERO PUSH2 0x10 JUMPI PUSH1 0x0 DUP1 REVERT JUMPDEST POP PUSH1 0x4 CALLDATASIZE LT PUSH2 0x4C JUMPI PUSH1 0x0 CALLDATALOAD PUSH1 0xE0 SHR DUP1 PUSH4 0x2EB4A7AB EQ PUSH2 0x51 JUMPI DUP1 PUSH4 0x3D13F874 EQ PUSH2 0x6F JUMPI DUP1 PUSH4 0x46C7B298 EQ PUSH2 0x8B JUMPI DUP1 PUSH4 0xFC0C546A EQ PUSH2 0xA9 JUMPI JUMPDEST PUSH1 0x0 DUP1 REVERT JUMPDEST PUSH2 0x59 PUSH2 0xC7 JUMP JUMPDEST PUSH1 0x40 MLOAD PUSH2 0x66 SWAP2 SWAP1 PUSH2 0x472 JUMP JUMPDEST PUSH1 0x40 MLOAD DUP1 SWAP2 SUB SWAP1 RETURN JUMPDEST PUSH2 0x89 PUSH1 0x4 DUP1 CALLDATASIZE SUB DUP2 ADD SWAP1 PUSH2 0x84 SWAP2 SWAP1 PUSH2 0x590 JUMP JUMPDEST PUSH2 0xCD JUMP JUMPDEST STOP JUMPDEST PUSH2 0x93 PUSH2 0x380 JUMP JUMPDEST PUSH1 0x40 MLOAD PUSH2 0xA0 SWAP2 SWAP1 PUSH2 0x613 JUMP JUMPDEST PUSH1 0x40 MLOAD DUP1 SWAP2 SUB SWAP1 RETURN JUMPDEST PUSH2 0xB1 PUSH2 0x386 JUMP JUMPDEST PUSH1 0x40 MLOAD PUSH2 0xBE SWAP2 SWAP1 PUSH2 0x63D JUMP JUMPDEST PUSH1 0x40 MLOAD DUP1 SWAP2 SUB SWAP1 RETURN JUMPDEST PUSH1 0x1 SLOAD DUP2 JUMP JUMPDEST PUSH1 0x0 PUSH1 0x2 PUSH1 0x0 DUP7 PUSH20 0xFFFFFFFFFFFFFFFFFFFFFFFFFFFFFFFFFFFFFFFF AND PUSH20 0xFFFFFFFFFFFFFFFFFFFFFFFFFFFFFFFFFFFFFFFF AND DUP2 MSTORE PUSH1 0x20 ADD SWAP1 DUP2 MSTORE PUSH1 0x20 ADD PUSH1 0x0 KECCAK256 SLOAD EQ PUSH2 0x14F JUMPI PUSH1 0x40 MLOAD PUSH32 0x8C379A000000000000000000000000000000000000000000000000000000000 DUP2 MSTORE PUSH1 0x4 ADD PUSH2 0x146 SWAP1 PUSH2 0x6DB JUMP JUMPDEST PUSH1 0x40 MLOAD DUP1 SWAP2 SUB SWAP1 REVERT JUMPDEST PUSH1 0x0 DUP5 DUP5 PUSH1 0x40 MLOAD PUSH1 0x20 ADD PUSH2 0x164 SWAP3 SWAP2 SWAP1 PUSH2 0x764 JUMP JUMPDEST PUSH1 0x40 MLOAD PUSH1 0x20 DUP2 DUP4 SUB SUB DUP2 MSTORE SWAP1 PUSH1 0x40 MSTORE DUP1 MLOAD SWAP1 PUSH1 0x20 ADD KECCAK256 SWAP1 POP PUSH2 0x1CA DUP4 DUP4 DUP1 DUP1 PUSH1 0x20 MUL PUSH1 0x20 ADD PUSH1 0x40 MLOAD SWAP1 DUP2 ADD PUSH1 0x40 MSTORE DUP1 SWAP4 SWAP3 SWAP2 SWAP1 DUP2 DUP2 MSTORE PUSH1 0x20 ADD DUP4 DUP4 PUSH1 0x20 MUL DUP1 DUP3 DUP5 CALLDATACOPY PUSH1 0x0 DUP2 DUP5 ADD MSTORE PUSH1 0x1F NOT PUSH1 0x1F DUP3 ADD AND SWAP1 POP DUP1 DUP4 ADD SWAP3 POP POP POP POP POP POP POP PUSH1 0x1 SLOAD DUP4 PUSH2 0x3AA JUMP JUMPDEST PUSH2 0x209 JUMPI PUSH1 0x40 MLOAD PUSH32 0x8C379A000000000000000000000000000000000000000000000000000000000 DUP2 MSTORE PUSH1 0x4 ADD PUSH2 0x200 SWAP1 PUSH2 0x7DC JUMP JUMPDEST PUSH1 0x40 MLOAD DUP1 SWAP2 SUB SWAP1 REVERT JUMPDEST PUSH1 0x1 PUSH1 0x2 PUSH1 0x0 DUP8 PUSH20 0xFFFFFFFFFFFFFFFFFFFFFFFFFFFFFFFFFFFFFFFF AND PUSH20 0xFFFFFFFFFFFFFFFFFFFFFFFFFFFFFFFFFFFFFFFF AND DUP2 MSTORE PUSH1 0x20 ADD SWAP1 DUP2 MSTORE PUSH1 0x20 ADD PUSH1 0x0 KECCAK256 DUP2 SWAP1 SSTORE POP PUSH1 0x0 DUP1 SLOAD SWAP1 PUSH2 0x100 EXP SWAP1 DIV PUSH20 0xFFFFFFFFFFFFFFFFFFFFFFFFFFFFFFFFFFFFFFFF AND PUSH20 0xFFFFFFFFFFFFFFFFFFFFFFFFFFFFFFFFFFFFFFFF AND PUSH4 0xA9059CBB DUP7 DUP7 PUSH1 0x40 MLOAD DUP4 PUSH4 0xFFFFFFFF AND PUSH1 0xE0 SHL DUP2 MSTORE PUSH1 0x4 ADD PUSH2 0x2A9 SWAP3 SWAP2 SWAP1 PUSH2 0x7FC JUMP JUMPDEST PUSH1 0x20 PUSH1 0x40 MLOAD DUP1 DUP4 SUB DUP2 PUSH1 0x0 DUP8 GAS CALL ISZERO DUP1 ISZERO PUSH2 0x2C8 JUMPI RETURNDATASIZE PUSH1 0x0 DUP1 RETURNDATACOPY RETURNDATASIZE PUSH1 0x0 REVERT JUMPDEST POP POP POP POP PUSH1 0x40 MLOAD RETURNDATASIZE PUSH1 0x1F NOT PUSH1 0x1F DUP3 ADD AND DUP3 ADD DUP1 PUSH1 0x40 MSTORE POP DUP2 ADD SWAP1 PUSH2 0x2EC SWAP2 SWAP1 PUSH2 0x85D JUMP JUMPDEST PUSH2 0x32B JUMPI PUSH1 0x40 MLOAD PUSH32 0x8C379A000000000000000000000000000000000000000000000000000000000 DUP2 MSTORE PUSH1 0x4 ADD PUSH2 0x322 SWAP1 PUSH2 0x8D6 JUMP JUMPDEST PUSH1 0x40 MLOAD DUP1 SWAP2 SUB SWAP1 REVERT JUMPDEST DUP5 PUSH20 0xFFFFFFFFFFFFFFFFFFFFFFFFFFFFFFFFFFFFFFFF AND PUSH32 0xD8138F8A3F377C5259CA548E70E4C2DE94F129F5A11036A15B69513CBA2B426A DUP6 PUSH1 0x40 MLOAD PUSH2 0x371 SWAP2 SWAP1 PUSH2 0x613 JUMP JUMPDEST PUSH1 0x40 MLOAD DUP1 SWAP2 SUB SWAP1 LOG2 POP POP POP POP POP JUMP JUMPDEST PUSH1 0x3 SLOAD DUP2 JUMP JUMPDEST PUSH1 0x0 DUP1 SLOAD SWAP1 PUSH2 0x100 EXP SWAP1 DIV PUSH20 0xFFFFFFFFFFFFFFFFFFFFFFFFFFFFFFFFFFFFFFFF AND DUP2 JUMP JUMPDEST PUSH1 0x0 DUP3 PUSH2 0x3B7 DUP6 DUP5 PUSH2 0x3C1 JUMP JUMPDEST EQ SWAP1 POP SWAP4 SWAP3 POP POP POP JUMP JUMPDEST PUSH1 0x0 DUP1 DUP3 SWAP1 POP PUSH1 0x0 JUMPDEST DUP5 MLOAD DUP2 LT ISZERO PUSH2 0x40C JUMPI PUSH2 0x3F7 DUP3 DUP7 DUP4 DUP2 MLOAD DUP2 LT PUSH2 0x3EA JUMPI PUSH2 0x3E9 PUSH2 0x8F6 JUMP JUMPDEST JUMPDEST PUSH1 0x20 MUL PUSH1 0x20 ADD ADD MLOAD PUSH2 0x417 JUMP JUMPDEST SWAP2 POP DUP1 DUP1 PUSH2 0x404 SWAP1 PUSH2 0x954 JUMP JUMPDEST SWAP2 POP POP PUSH2 0x3CA JUMP JUMPDEST POP DUP1 SWAP2 POP POP SWAP3 SWAP2 POP POP JUMP JUMPDEST PUSH1 0x0 DUP2 DUP4 LT PUSH2 0x42F JUMPI PUSH2 0x42A DUP3 DUP5 PUSH2 0x442 JUMP JUMPDEST PUSH2 0x43A JUMP JUMPDEST PUSH2 0x439 DUP4 DUP4 PUSH2 0x442 JUMP JUMPDEST JUMPDEST SWAP1 POP SWAP3 SWAP2 POP POP JUMP JUMPDEST PUSH1 0x0 DUP3 PUSH1 0x0 MSTORE DUP2 PUSH1 0x20 MSTORE PUSH1 0x40 PUSH1 0x0 KECCAK256 SWAP1 POP SWAP3 SWAP2 POP POP JUMP JUMPDEST PUSH1 0x0 DUP2 SWAP1 POP SWAP2 SWAP1 POP JUMP JUMPDEST PUSH2 0x46C DUP2 PUSH2 0x459 JUMP JUMPDEST DUP3 MSTORE POP POP JUMP JUMPDEST PUSH1 0x0 PUSH1 0x20 DUP3 ADD SWAP1 POP PUSH2 0x487 PUSH1 0x0 DUP4 ADD DUP5 PUSH2 0x463 JUMP JUMPDEST SWAP3 SWAP2 POP POP JUMP JUMPDEST PUSH1 0x0 DUP1 REVERT JUMPDEST PUSH1 0x0 DUP1 REVERT JUMPDEST PUSH1 0x0 PUSH20 0xFFFFFFFFFFFFFFFFFFFFFFFFFFFFFFFFFFFFFFFF DUP3 AND SWAP1 POP SWAP2 SWAP1 POP JUMP JUMPDEST PUSH1 0x0 PUSH2 0x4C2 DUP3 PUSH2 0x497 JUMP JUMPDEST SWAP1 POP SWAP2 SWAP1 POP JUMP JUMPDEST PUSH2 0x4D2 DUP2 PUSH2 0x4B7 JUMP JUMPDEST DUP2 EQ PUSH2 0x4DD JUMPI PUSH1 0x0 DUP1 REVERT JUMPDEST POP JUMP JUMPDEST PUSH1 0x0 DUP2 CALLDATALOAD SWAP1 POP PUSH2 0x4EF DUP2 PUSH2 0x4C9 JUMP JUMPDEST SWAP3 SWAP2 POP POP JUMP JUMPDEST PUSH1 0x0 DUP2 SWAP1 POP SWAP2 SWAP1 POP JUMP JUMPDEST PUSH2 0x508 DUP2 PUSH2 0x4F5 JUMP JUMPDEST DUP2 EQ PUSH2 0x513 JUMPI PUSH1 0x0 DUP1 REVERT JUMPDEST POP JUMP JUMPDEST PUSH1 0x0 DUP2 CALLDATALOAD SWAP1 POP PUSH2 0x525 DUP2 PUSH2 0x4FF JUMP JUMPDEST SWAP3 SWAP2 POP POP JUMP JUMPDEST PUSH1 0x0 DUP1 REVERT JUMPDEST PUSH1 0x0 DUP1 REVERT JUMPDEST PUSH1 0x0 DUP1 REVERT JUMPDEST PUSH1 0x0 DUP1 DUP4 PUSH1 0x1F DUP5 ADD SLT PUSH2 0x550 JUMPI PUSH2 0x54F PUSH2 0x52B JUMP JUMPDEST JUMPDEST DUP3 CALLDATALOAD SWAP1 POP PUSH8 0xFFFFFFFFFFFFFFFF DUP2 GT ISZERO PUSH2 0x56D JUMPI PUSH2 0x56C PUSH2 0x530 JUMP JUMPDEST JUMPDEST PUSH1 0x20 DUP4 ADD SWAP2 POP DUP4 PUSH1 0x20 DUP3 MUL DUP4 ADD GT ISZERO PUSH2 0x589 JUMPI PUSH2 0x588 PUSH2 0x535 JUMP JUMPDEST JUMPDEST SWAP3 POP SWAP3 SWAP1 POP JUMP JUMPDEST PUSH1 0x0 DUP1 PUSH1 0x0 DUP1 PUSH1 0x60 DUP6 DUP8 SUB SLT ISZERO PUSH2 0x5AA JUMPI PUSH2 0x5A9 PUSH2 0x48D JUMP JUMPDEST JUMPDEST PUSH1 0x0 PUSH2 0x5B8 DUP8 DUP3 DUP9 ADD PUSH2 0x4E0 JUMP JUMPDEST SWAP5 POP POP PUSH1 0x20 PUSH2 0x5C9 DUP8 DUP3 DUP9 ADD PUSH2 0x516 JUMP JUMPDEST SWAP4 POP POP PUSH1 0x40 DUP6 ADD CALLDATALOAD PUSH8 0xFFFFFFFFFFFFFFFF DUP2 GT ISZERO PUSH2 0x5EA JUMPI PUSH2 0x5E9 PUSH2 0x492 JUMP JUMPDEST JUMPDEST PUSH2 0x5F6 DUP8 DUP3 DUP9 ADD PUSH2 0x53A JUMP JUMPDEST SWAP3 POP SWAP3 POP POP SWAP3 SWAP6 SWAP2 SWAP5 POP SWAP3 POP JUMP JUMPDEST PUSH2 0x60D DUP2 PUSH2 0x4F5 JUMP JUMPDEST DUP3 MSTORE POP POP JUMP JUMPDEST PUSH1 0x0 PUSH1 0x20 DUP3 ADD SWAP1 POP PUSH2 0x628 PUSH1 0x0 DUP4 ADD DUP5 PUSH2 0x604 JUMP JUMPDEST SWAP3 SWAP2 POP POP JUMP JUMPDEST PUSH2 0x637 DUP2 PUSH2 0x4B7 JUMP JUMPDEST DUP3 MSTORE POP POP JUMP JUMPDEST PUSH1 0x0 PUSH1 0x20 DUP3 ADD SWAP1 POP PUSH2 0x652 PUSH1 0x0 DUP4 ADD DUP5 PUSH2 0x62E JUMP JUMPDEST SWAP3 SWAP2 POP POP JUMP JUMPDEST PUSH1 0x0 DUP3 DUP3 MSTORE PUSH1 0x20 DUP3 ADD SWAP1 POP SWAP3 SWAP2 POP POP JUMP JUMPDEST PUSH32 0x4D65726B6C654469737472696275746F723A2044726F7020616C726561647920 PUSH1 0x0 DUP3 ADD MSTORE PUSH32 0x636C61696D656400000000000000000000000000000000000000000000000000 PUSH1 0x20 DUP3 ADD MSTORE POP JUMP JUMPDEST PUSH1 0x0 PUSH2 0x6C5 PUSH1 0x27 DUP4 PUSH2 0x658 JUMP JUMPDEST SWAP2 POP PUSH2 0x6D0 DUP3 PUSH2 0x669 JUMP JUMPDEST PUSH1 0x40 DUP3 ADD SWAP1 POP SWAP2 SWAP1 POP JUMP JUMPDEST PUSH1 0x0 PUSH1 0x20 DUP3 ADD SWAP1 POP DUP2 DUP2 SUB PUSH1 0x0 DUP4 ADD MSTORE PUSH2 0x6F4 DUP2 PUSH2 0x6B8 JUMP JUMPDEST SWAP1 POP SWAP2 SWAP1 POP JUMP JUMPDEST PUSH1 0x0 DUP2 PUSH1 0x60 SHL SWAP1 POP SWAP2 SWAP1 POP JUMP JUMPDEST PUSH1 0x0 PUSH2 0x713 DUP3 PUSH2 0x6FB JUMP JUMPDEST SWAP1 POP SWAP2 SWAP1 POP JUMP JUMPDEST PUSH1 0x0 PUSH2 0x725 DUP3 PUSH2 0x708 JUMP JUMPDEST SWAP1 POP SWAP2 SWAP1 POP JUMP JUMPDEST PUSH2 0x73D PUSH2 0x738 DUP3 PUSH2 0x4B7 JUMP JUMPDEST PUSH2 0x71A JUMP JUMPDEST DUP3 MSTORE POP POP JUMP JUMPDEST PUSH1 0x0 DUP2 SWAP1 POP SWAP2 SWAP1 POP JUMP JUMPDEST PUSH2 0x75E PUSH2 0x759 DUP3 PUSH2 0x4F5 JUMP JUMPDEST PUSH2 0x743 JUMP JUMPDEST DUP3 MSTORE POP POP JUMP JUMPDEST PUSH1 0x0 PUSH2 0x770 DUP3 DUP6 PUSH2 0x72C JUMP JUMPDEST PUSH1 0x14 DUP3 ADD SWAP2 POP PUSH2 0x780 DUP3 DUP5 PUSH2 0x74D JUMP JUMPDEST PUSH1 0x20 DUP3 ADD SWAP2 POP DUP2 SWAP1 POP SWAP4 SWAP3 POP POP POP JUMP JUMPDEST PUSH32 0x496E76616C69642070726F6F6600000000000000000000000000000000000000 PUSH1 0x0 DUP3 ADD MSTORE POP JUMP JUMPDEST PUSH1 0x0 PUSH2 0x7C6 PUSH1 0xD DUP4 PUSH2 0x658 JUMP JUMPDEST SWAP2 POP PUSH2 0x7D1 DUP3 PUSH2 0x790 JUMP JUMPDEST PUSH1 0x20 DUP3 ADD SWAP1 POP SWAP2 SWAP1 POP JUMP JUMPDEST PUSH1 0x0 PUSH1 0x20 DUP3 ADD SWAP1 POP DUP2 DUP2 SUB PUSH1 0x0 DUP4 ADD MSTORE PUSH2 0x7F5 DUP2 PUSH2 0x7B9 JUMP JUMPDEST SWAP1 POP SWAP2 SWAP1 POP JUMP JUMPDEST PUSH1 0x0 PUSH1 0x40 DUP3 ADD SWAP1 POP PUSH2 0x811 PUSH1 0x0 DUP4 ADD DUP6 PUSH2 0x62E JUMP JUMPDEST PUSH2 0x81E PUSH1 0x20 DUP4 ADD DUP5 PUSH2 0x604 JUMP JUMPDEST SWAP4 SWAP3 POP POP POP JUMP JUMPDEST PUSH1 0x0 DUP2 ISZERO ISZERO SWAP1 POP SWAP2 SWAP1 POP JUMP JUMPDEST PUSH2 0x83A DUP2 PUSH2 0x825 JUMP JUMPDEST DUP2 EQ PUSH2 0x845 JUMPI PUSH1 0x0 DUP1 REVERT JUMPDEST POP JUMP JUMPDEST PUSH1 0x0 DUP2 MLOAD SWAP1 POP PUSH2 0x857 DUP2 PUSH2 0x831 JUMP JUMPDEST SWAP3 SWAP2 POP POP JUMP JUMPDEST PUSH1 0x0 PUSH1 0x20 DUP3 DUP5 SUB SLT ISZERO PUSH2 0x873 JUMPI PUSH2 0x872 PUSH2 0x48D JUMP JUMPDEST JUMPDEST PUSH1 0x0 PUSH2 0x881 DUP5 DUP3 DUP6 ADD PUSH2 0x848 JUMP JUMPDEST SWAP2 POP POP SWAP3 SWAP2 POP POP JUMP JUMPDEST PUSH32 0x5472616E73666572206661696C65640000000000000000000000000000000000 PUSH1 0x0 DUP3 ADD MSTORE POP JUMP JUMPDEST PUSH1 0x0 PUSH2 0x8C0 PUSH1 0xF DUP4 PUSH2 0x658 JUMP JUMPDEST SWAP2 POP PUSH2 0x8CB DUP3 PUSH2 0x88A JUMP JUMPDEST PUSH1 0x20 DUP3 ADD SWAP1 POP SWAP2 SWAP1 POP JUMP JUMPDEST PUSH1 0x0 PUSH1 0x20 DUP3 ADD SWAP1 POP DUP2 DUP2 SUB PUSH1 0x0 DUP4 ADD MSTORE PUSH2 0x8EF DUP2 PUSH2 0x8B3 JUMP JUMPDEST SWAP1 POP SWAP2 SWAP1 POP JUMP JUMPDEST PUSH32 0x4E487B7100000000000000000000000000000000000000000000000000000000 PUSH1 0x0 MSTORE PUSH1 0x32 PUSH1 0x4 MSTORE PUSH1 0x24 PUSH1 0x0 REVERT JUMPDEST PUSH32 0x4E487B7100000000000000000000000000000000000000000000000000000000 PUSH1 0x0 MSTORE PUSH1 0x11 PUSH1 0x4 MSTORE PUSH1 0x24 PUSH1 0x0 REVERT JUMPDEST PUSH1 0x0 PUSH2 0x95F DUP3 PUSH2 0x4F5 JUMP JUMPDEST SWAP2 POP PUSH32 0xFFFFFFFFFFFFFFFFFFFFFFFFFFFFFFFFFFFFFFFFFFFFFFFFFFFFFFFFFFFFFFFF DUP3 SUB PUSH2 0x991 JUMPI PUSH2 0x990 PUSH2 0x925 JUMP JUMPDEST JUMPDEST PUSH1 0x1 DUP3 ADD SWAP1 POP SWAP2 SWAP1 POP JUMP INVALID LOG2 PUSH5 0x6970667358 0x22 SLT KECCAK256 0x29 0xEB LOG0 SWAP13 LOG3 PUSH27 0xE1295433BA46FC00971022A5D3ABFC36C9DD596A2DEDA4DE0A7C64 PUSH20 0x6F6C63430008130033A264697066735822122048 SWAP7 0x27 0xBB 0x1F 0xA9 SWAP7 SWAP2 0xDD 0xBE 0xEC 0xC1 0x29 EXP SGT 0xA5 0x1E NUMBER 0xA6 0xB2 PUSH7 0x736700DEAF2172 0x25 SLOAD LOG0 0xED PUSH5 0x736F6C6343 STOP ADDMOD SGT STOP CALLER "},"methodIdentifiers":{"claim(address[],address,uint256[],bytes32[][])":"470f0f86","createMerkleDistributor(address,bytes32,uint256)":"f6937f80","deployedContracts(address)":"c70242ad","deployedContractsList(uint256)":"99ca49eb","getAllDeployedContracts()":"6c9364b2","tokenBalances(address,address)":"4dbf6c5a"}}}}}