{
  "_format": "hh-sol-artifact-1",
  "contractName": "MerkleDistributorFactory",
  "sourceName": "contracts/MerkleDistributorFactory.sol",
  "abi": [
    {
      "anonymous": false,
      "inputs": [
        {
          "indexed": true,
          "internalType": "address",
          "name": "distributor",
          "type": "address"
        },
        {
          "indexed": true,
          "internalType": "address",
          "name": "creator",
          "type": "address"
        },
        {
          "indexed": true,
          "internalType": "address",
          "name": "token",
          "type": "address"
        }
      ],
      "name": "MerkleDistributorDeployed",
      "type": "event"
    },
    {
      "inputs": [
        {
          "internalType": "address[]",
          "name": "distributors",
          "type": "address[]"
        },
        {
          "internalType": "address",
          "name": "account",
          "type": "address"
        },
        {
          "internalType": "uint256[]",
          "name": "amounts",
          "type": "uint256[]"
        },
        {
          "internalType": "bytes32[][]",
          "name": "merkleProofs",
          "type": "bytes32[][]"
        }
      ],
      "name": "claim",
      "outputs": [],
      "stateMutability": "nonpayable",
      "type": "function"
    },
    {
      "inputs": [
        {
          "internalType": "address",
          "name": "token",
          "type": "address"
        },
        {
          "internalType": "bytes32",
          "name": "merkleRoot",
          "type": "bytes32"
        },
        {
          "internalType": "uint256",
          "name": "AirdropAmount",
          "type": "uint256"
        }
      ],
      "name": "createMerkleDistributor",
      "outputs": [],
      "stateMutability": "nonpayable",
      "type": "function"
    },
    {
      "inputs": [
        {
          "internalType": "address",
          "name": "",
          "type": "address"
        }
      ],
      "name": "deployedContracts",
      "outputs": [
        {
          "internalType": "bool",
          "name": "",
          "type": "bool"
        }
      ],
      "stateMutability": "view",
      "type": "function"
    },
    {
      "inputs": [
        {
          "internalType": "uint256",
          "name": "",
          "type": "uint256"
        }
      ],
      "name": "deployedContractsList",
      "outputs": [
        {
          "internalType": "address",
          "name": "",
          "type": "address"
        }
      ],
      "stateMutability": "view",
      "type": "function"
    },
    {
      "inputs": [],
      "name": "getAllDeployedContracts",
      "outputs": [
        {
          "internalType": "address[]",
          "name": "",
          "type": "address[]"
        }
      ],
      "stateMutability": "view",
      "type": "function"
    },
    {
      "inputs": [
        {
          "internalType": "address",
          "name": "",
          "type": "address"
        },
        {
          "internalType": "address",
          "name": "",
          "type": "address"
        }
      ],
      "name": "tokenBalances",
      "outputs": [
        {
          "internalType": "uint256",
          "name": "",
          "type": "uint256"
        }
      ],
      "stateMutability": "view",
      "type": "function"
    }
  ],
  "bytecode": "0x608060405234801561001057600080fd5b506124ea806100206000396000f3fe60806040523480156200001157600080fd5b50600436106200006a5760003560e01c8063470f0f86146200006f5780634dbf6c5a146200008f5780636c9364b214620000c557806399ca49eb14620000e7578063c70242ad146200011d578063f6937f801462000153575b600080fd5b6200008d600480360381019062000087919062000ed7565b62000173565b005b620000ad6004803603810190620000a7919062000fab565b620005aa565b604051620000bc919062001003565b60405180910390f35b620000cf620005cf565b604051620000de9190620010ee565b60405180910390f35b620001056004803603810190620000ff919062001112565b6200065f565b60405162000114919062001155565b60405180910390f35b6200013b600480360381019062000135919062001172565b6200069f565b6040516200014a9190620011c1565b60405180910390f35b6200017160048036038101906200016b919062001219565b620006bf565b005b82518551148015620001885750818190508551145b620001ca576040517f08c379a0000000000000000000000000000000000000000000000000000000008152600401620001c190620012d6565b60405180910390fd5b60005b8551811015620005a2576000868281518110620001ef57620001ee620012f8565b5b602002602001015190506000858381518110620002115762000210620012f8565b5b60200260200101519050366000868686818110620002345762000233620012f8565b5b905060200281019062000248919062001336565b915091506000808573ffffffffffffffffffffffffffffffffffffffff1673ffffffffffffffffffffffffffffffffffffffff16815260200190815260200160002060009054906101000a900460ff16620002da576040517f08c379a0000000000000000000000000000000000000000000000000000000008152600401620002d190620013f2565b60405180910390fd5b82600260008673ffffffffffffffffffffffffffffffffffffffff1673ffffffffffffffffffffffffffffffffffffffff16815260200190815260200160002060008673ffffffffffffffffffffffffffffffffffffffff1663fc0c546a6040518163ffffffff1660e01b8152600401602060405180830381865afa15801562000368573d6000803e3d6000fd5b505050506040513d601f19601f820116820180604052508101906200038e91906200142b565b73ffffffffffffffffffffffffffffffffffffffff1673ffffffffffffffffffffffffffffffffffffffff1681526020019081526020016000205410156200040d576040517f08c379a00000000000000000000000000000000000000000000000000000000081526004016200040490620014d3565b60405180910390fd5b82600260008673ffffffffffffffffffffffffffffffffffffffff1673ffffffffffffffffffffffffffffffffffffffff16815260200190815260200160002060008673ffffffffffffffffffffffffffffffffffffffff1663fc0c546a6040518163ffffffff1660e01b8152600401602060405180830381865afa1580156200049b573d6000803e3d6000fd5b505050506040513d601f19601f82011682018060405250810190620004c191906200142b565b73ffffffffffffffffffffffffffffffffffffffff1673ffffffffffffffffffffffffffffffffffffffff16815260200190815260200160002060008282546200050c919062001524565b925050819055508373ffffffffffffffffffffffffffffffffffffffff16633d13f8748a8585856040518563ffffffff1660e01b8152600401620005549493929190620015e1565b600060405180830381600087803b1580156200056f57600080fd5b505af115801562000584573d6000803e3d6000fd5b50505050505050508080620005999062001627565b915050620001cd565b505050505050565b6002602052816000526040600020602052806000526040600020600091509150505481565b606060018054806020026020016040519081016040528092919081815260200182805480156200065557602002820191906000526020600020905b8160009054906101000a900473ffffffffffffffffffffffffffffffffffffffff1673ffffffffffffffffffffffffffffffffffffffff16815260200190600101908083116200060a575b5050505050905090565b600181815481106200067057600080fd5b906000526020600020016000915054906101000a900473ffffffffffffffffffffffffffffffffffffffff1681565b60006020528060005260406000206000915054906101000a900460ff1681565b808373ffffffffffffffffffffffffffffffffffffffff166370a08231336040518263ffffffff1660e01b8152600401620006fb919062001155565b602060405180830381865afa15801562000719573d6000803e3d6000fd5b505050506040513d601f19601f820116820180604052508101906200073f91906200168b565b101562000783576040517f08c379a00000000000000000000000000000000000000000000000000000000081526004016200077a9062001733565b60405180910390fd5b6000808473ffffffffffffffffffffffffffffffffffffffff1673ffffffffffffffffffffffffffffffffffffffff16815260200190815260200160002060009054906101000a900460ff161562000812576040517f08c379a00000000000000000000000000000000000000000000000000000000081526004016200080990620017cb565b60405180910390fd5b8273ffffffffffffffffffffffffffffffffffffffff166323b872dd3330846040518463ffffffff1660e01b81526004016200085193929190620017ed565b6020604051808303816000875af115801562000871573d6000803e3d6000fd5b505050506040513d601f19601f820116820180604052508101906200089791906200185b565b506000838383604051620008ab9062000b66565b620008b9939291906200189e565b604051809103906000f080158015620008d6573d6000803e3d6000fd5b5090508373ffffffffffffffffffffffffffffffffffffffff1663a9059cbb82846040518363ffffffff1660e01b815260040162000916929190620018db565b6020604051808303816000875af115801562000936573d6000803e3d6000fd5b505050506040513d601f19601f820116820180604052508101906200095c91906200185b565b5060016000808673ffffffffffffffffffffffffffffffffffffffff1673ffffffffffffffffffffffffffffffffffffffff16815260200190815260200160002060006101000a81548160ff02191690831515021790555060016000808373ffffffffffffffffffffffffffffffffffffffff1673ffffffffffffffffffffffffffffffffffffffff16815260200190815260200160002060006101000a81548160ff0219169083151502179055506001819080600181540180825580915050600190039060005260206000200160009091909190916101000a81548173ffffffffffffffffffffffffffffffffffffffff021916908373ffffffffffffffffffffffffffffffffffffffff16021790555081600260008373ffffffffffffffffffffffffffffffffffffffff1673ffffffffffffffffffffffffffffffffffffffff16815260200190815260200160002060008673ffffffffffffffffffffffffffffffffffffffff1673ffffffffffffffffffffffffffffffffffffffff168152602001908152602001600020819055508373ffffffffffffffffffffffffffffffffffffffff163373ffffffffffffffffffffffffffffffffffffffff168273ffffffffffffffffffffffffffffffffffffffff167fa2cceb60a276e698e370384a6d8d9b143cb5be6a57b3e0f27dfd0f5ab7108ed660405160405180910390a450505050565b610bac806200190983390190565b6000604051905090565b600080fd5b600080fd5b600080fd5b6000601f19601f8301169050919050565b7f4e487b7100000000000000000000000000000000000000000000000000000000600052604160045260246000fd5b62000bd88262000b8d565b810181811067ffffffffffffffff8211171562000bfa5762000bf962000b9e565b5b80604052505050565b600062000c0f62000b74565b905062000c1d828262000bcd565b919050565b600067ffffffffffffffff82111562000c405762000c3f62000b9e565b5b602082029050602081019050919050565b600080fd5b600073ffffffffffffffffffffffffffffffffffffffff82169050919050565b600062000c838262000c56565b9050919050565b62000c958162000c76565b811462000ca157600080fd5b50565b60008135905062000cb58162000c8a565b92915050565b600062000cd262000ccc8462000c22565b62000c03565b9050808382526020820190506020840283018581111562000cf85762000cf762000c51565b5b835b8181101562000d25578062000d10888262000ca4565b84526020840193505060208101905062000cfa565b5050509392505050565b600082601f83011262000d475762000d4662000b88565b5b813562000d5984826020860162000cbb565b91505092915050565b600067ffffffffffffffff82111562000d805762000d7f62000b9e565b5b602082029050602081019050919050565b6000819050919050565b62000da68162000d91565b811462000db257600080fd5b50565b60008135905062000dc68162000d9b565b92915050565b600062000de362000ddd8462000d62565b62000c03565b9050808382526020820190506020840283018581111562000e095762000e0862000c51565b5b835b8181101562000e36578062000e21888262000db5565b84526020840193505060208101905062000e0b565b5050509392505050565b600082601f83011262000e585762000e5762000b88565b5b813562000e6a84826020860162000dcc565b91505092915050565b600080fd5b60008083601f84011262000e915762000e9062000b88565b5b8235905067ffffffffffffffff81111562000eb15762000eb062000e73565b5b60208301915083602082028301111562000ed05762000ecf62000c51565b5b9250929050565b60008060008060006080868803121562000ef65762000ef562000b7e565b5b600086013567ffffffffffffffff81111562000f175762000f1662000b83565b5b62000f258882890162000d2f565b955050602062000f388882890162000ca4565b945050604086013567ffffffffffffffff81111562000f5c5762000f5b62000b83565b5b62000f6a8882890162000e40565b935050606086013567ffffffffffffffff81111562000f8e5762000f8d62000b83565b5b62000f9c8882890162000e78565b92509250509295509295909350565b6000806040838503121562000fc55762000fc462000b7e565b5b600062000fd58582860162000ca4565b925050602062000fe88582860162000ca4565b9150509250929050565b62000ffd8162000d91565b82525050565b60006020820190506200101a600083018462000ff2565b92915050565b600081519050919050565b600082825260208201905092915050565b6000819050602082019050919050565b620010578162000c76565b82525050565b60006200106b83836200104c565b60208301905092915050565b6000602082019050919050565b6000620010918262001020565b6200109d81856200102b565b9350620010aa836200103c565b8060005b83811015620010e1578151620010c588826200105d565b9750620010d28362001077565b925050600181019050620010ae565b5085935050505092915050565b600060208201905081810360008301526200110a818462001084565b905092915050565b6000602082840312156200112b576200112a62000b7e565b5b60006200113b8482850162000db5565b91505092915050565b6200114f8162000c76565b82525050565b60006020820190506200116c600083018462001144565b92915050565b6000602082840312156200118b576200118a62000b7e565b5b60006200119b8482850162000ca4565b91505092915050565b60008115159050919050565b620011bb81620011a4565b82525050565b6000602082019050620011d86000830184620011b0565b92915050565b6000819050919050565b620011f381620011de565b8114620011ff57600080fd5b50565b6000813590506200121381620011e8565b92915050565b60008060006060848603121562001235576200123462000b7e565b5b6000620012458682870162000ca4565b9350506020620012588682870162001202565b92505060406200126b8682870162000db5565b9150509250925092565b600082825260208201905092915050565b7f4172726179206c656e677468206d69736d617463680000000000000000000000600082015250565b6000620012be60158362001275565b9150620012cb8262001286565b602082019050919050565b60006020820190508181036000830152620012f181620012af565b9050919050565b7f4e487b7100000000000000000000000000000000000000000000000000000000600052603260045260246000fd5b600080fd5b600080fd5b600080fd5b6000808335600160200384360303811262001356576200135562001327565b5b80840192508235915067ffffffffffffffff8211156200137b576200137a6200132c565b5b6020830192506020820236038313156200139a576200139962001331565b5b509250929050565b7f496e76616c6964206469737472696275746f7220636f6e747261637400000000600082015250565b6000620013da601c8362001275565b9150620013e782620013a2565b602082019050919050565b600060208201905081810360008301526200140d81620013cb565b9050919050565b600081519050620014258162000c8a565b92915050565b60006020828403121562001444576200144362000b7e565b5b6000620014548482850162001414565b91505092915050565b7f496e73756666696369656e7420746f6b656e2062616c616e636520666f72206460008201527f69737472696275746f7200000000000000000000000000000000000000000000602082015250565b6000620014bb602a8362001275565b9150620014c8826200145d565b604082019050919050565b60006020820190508181036000830152620014ee81620014ac565b9050919050565b7f4e487b7100000000000000000000000000000000000000000000000000000000600052601160045260246000fd5b6000620015318262000d91565b91506200153e8362000d91565b9250828203905081811115620015595762001558620014f5565b5b92915050565b600082825260208201905092915050565b600080fd5b82818337505050565b60006200158c83856200155f565b93507f07ffffffffffffffffffffffffffffffffffffffffffffffffffffffffffffff831115620015c257620015c162001570565b5b602083029250620015d583858462001575565b82840190509392505050565b6000606082019050620015f8600083018762001144565b62001607602083018662000ff2565b81810360408301526200161c8184866200157e565b905095945050505050565b6000620016348262000d91565b91507fffffffffffffffffffffffffffffffffffffffffffffffffffffffffffffffff8203620016695762001668620014f5565b5b600182019050919050565b600081519050620016858162000d9b565b92915050565b600060208284031215620016a457620016a362000b7e565b5b6000620016b48482850162001674565b91505092915050565b7f4d65726b6c654469737472696275746f723a20496e73756666696369656e742060008201527f62616c616e636500000000000000000000000000000000000000000000000000602082015250565b60006200171b60278362001275565b91506200172882620016bd565b604082019050919050565b600060208201905081810360008301526200174e816200170c565b9050919050565b7f4d65726b6c654469737472696275746f7220666f72207468697320746f6b656e60008201527f20697320616c7265616479206465706c6f796564000000000000000000000000602082015250565b6000620017b360348362001275565b9150620017c08262001755565b604082019050919050565b60006020820190508181036000830152620017e681620017a4565b9050919050565b600060608201905062001804600083018662001144565b62001813602083018562001144565b62001822604083018462000ff2565b949350505050565b6200183581620011a4565b81146200184157600080fd5b50565b60008151905062001855816200182a565b92915050565b60006020828403121562001874576200187362000b7e565b5b6000620018848482850162001844565b91505092915050565b6200189881620011de565b82525050565b6000606082019050620018b5600083018662001144565b620018c460208301856200188d565b620018d3604083018462000ff2565b949350505050565b6000604082019050620018f2600083018562001144565b62001901602083018462000ff2565b939250505056fe60806040523480156200001157600080fd5b5060405162000bac38038062000bac83398181016040528101906200003791906200016e565b826000806101000a81548173ffffffffffffffffffffffffffffffffffffffff021916908373ffffffffffffffffffffffffffffffffffffffff1602179055508160018190555080600381905550505050620001ca565b600080fd5b600073ffffffffffffffffffffffffffffffffffffffff82169050919050565b6000620000c08262000093565b9050919050565b620000d281620000b3565b8114620000de57600080fd5b50565b600081519050620000f281620000c7565b92915050565b6000819050919050565b6200010d81620000f8565b81146200011957600080fd5b50565b6000815190506200012d8162000102565b92915050565b6000819050919050565b620001488162000133565b81146200015457600080fd5b50565b60008151905062000168816200013d565b92915050565b6000806000606084860312156200018a57620001896200008e565b5b60006200019a86828701620000e1565b9350506020620001ad868287016200011c565b9250506040620001c08682870162000157565b9150509250925092565b6109d280620001da6000396000f3fe608060405234801561001057600080fd5b506004361061004c5760003560e01c80632eb4a7ab146100515780633d13f8741461006f57806346c7b2981461008b578063fc0c546a146100a9575b600080fd5b6100596100c7565b6040516100669190610472565b60405180910390f35b61008960048036038101906100849190610590565b6100cd565b005b610093610380565b6040516100a09190610613565b60405180910390f35b6100b1610386565b6040516100be919061063d565b60405180910390f35b60015481565b6000600260008673ffffffffffffffffffffffffffffffffffffffff1673ffffffffffffffffffffffffffffffffffffffff168152602001908152602001600020541461014f576040517f08c379a0000000000000000000000000000000000000000000000000000000008152600401610146906106db565b60405180910390fd5b60008484604051602001610164929190610764565b6040516020818303038152906040528051906020012090506101ca838380806020026020016040519081016040528093929190818152602001838360200280828437600081840152601f19601f82011690508083019250505050505050600154836103aa565b610209576040517f08c379a0000000000000000000000000000000000000000000000000000000008152600401610200906107dc565b60405180910390fd5b6001600260008773ffffffffffffffffffffffffffffffffffffffff1673ffffffffffffffffffffffffffffffffffffffff1681526020019081526020016000208190555060008054906101000a900473ffffffffffffffffffffffffffffffffffffffff1673ffffffffffffffffffffffffffffffffffffffff1663a9059cbb86866040518363ffffffff1660e01b81526004016102a99291906107fc565b6020604051808303816000875af11580156102c8573d6000803e3d6000fd5b505050506040513d601f19601f820116820180604052508101906102ec919061085d565b61032b576040517f08c379a0000000000000000000000000000000000000000000000000000000008152600401610322906108d6565b60405180910390fd5b8473ffffffffffffffffffffffffffffffffffffffff167fd8138f8a3f377c5259ca548e70e4c2de94f129f5a11036a15b69513cba2b426a856040516103719190610613565b60405180910390a25050505050565b60035481565b60008054906101000a900473ffffffffffffffffffffffffffffffffffffffff1681565b6000826103b785846103c1565b1490509392505050565b60008082905060005b845181101561040c576103f7828683815181106103ea576103e96108f6565b5b6020026020010151610417565b9150808061040490610954565b9150506103ca565b508091505092915050565b600081831061042f5761042a8284610442565b61043a565b6104398383610442565b5b905092915050565b600082600052816020526040600020905092915050565b6000819050919050565b61046c81610459565b82525050565b60006020820190506104876000830184610463565b92915050565b600080fd5b600080fd5b600073ffffffffffffffffffffffffffffffffffffffff82169050919050565b60006104c282610497565b9050919050565b6104d2816104b7565b81146104dd57600080fd5b50565b6000813590506104ef816104c9565b92915050565b6000819050919050565b610508816104f5565b811461051357600080fd5b50565b600081359050610525816104ff565b92915050565b600080fd5b600080fd5b600080fd5b60008083601f8401126105505761054f61052b565b5b8235905067ffffffffffffffff81111561056d5761056c610530565b5b60208301915083602082028301111561058957610588610535565b5b9250929050565b600080600080606085870312156105aa576105a961048d565b5b60006105b8878288016104e0565b94505060206105c987828801610516565b935050604085013567ffffffffffffffff8111156105ea576105e9610492565b5b6105f68782880161053a565b925092505092959194509250565b61060d816104f5565b82525050565b60006020820190506106286000830184610604565b92915050565b610637816104b7565b82525050565b6000602082019050610652600083018461062e565b92915050565b600082825260208201905092915050565b7f4d65726b6c654469737472696275746f723a2044726f7020616c72656164792060008201527f636c61696d656400000000000000000000000000000000000000000000000000602082015250565b60006106c5602783610658565b91506106d082610669565b604082019050919050565b600060208201905081810360008301526106f4816106b8565b9050919050565b60008160601b9050919050565b6000610713826106fb565b9050919050565b600061072582610708565b9050919050565b61073d610738826104b7565b61071a565b82525050565b6000819050919050565b61075e610759826104f5565b610743565b82525050565b6000610770828561072c565b601482019150610780828461074d565b6020820191508190509392505050565b7f496e76616c69642070726f6f6600000000000000000000000000000000000000600082015250565b60006107c6600d83610658565b91506107d182610790565b602082019050919050565b600060208201905081810360008301526107f5816107b9565b9050919050565b6000604082019050610811600083018561062e565b61081e6020830184610604565b9392505050565b60008115159050919050565b61083a81610825565b811461084557600080fd5b50565b60008151905061085781610831565b92915050565b6000602082840312156108735761087261048d565b5b600061088184828501610848565b91505092915050565b7f5472616e73666572206661696c65640000000000000000000000000000000000600082015250565b60006108c0600f83610658565b91506108cb8261088a565b602082019050919050565b600060208201905081810360008301526108ef816108b3565b9050919050565b7f4e487b7100000000000000000000000000000000000000000000000000000000600052603260045260246000fd5b7f4e487b7100000000000000000000000000000000000000000000000000000000600052601160045260246000fd5b600061095f826104f5565b91507fffffffffffffffffffffffffffffffffffffffffffffffffffffffffffffffff820361099157610990610925565b5b60018201905091905056fea264697066735822122029eba09ca37ae1295433ba46fc00971022a5d3abfc36c9dd596a2deda4de0a7c64736f6c63430008130033a2646970667358221220489627bb1fa99691ddbeecc1290a13a51e43a6b266736700deaf21722554a0ed64736f6c63430008130033",
  "linkReferences": {},
  "deployedLinkReferences": {}
}