{
  "_format": "hh-sol-artifact-1",
  "contractName": "MerkleDistributor",
  "sourceName": "contracts/MerkleDistributor.sol",
  "abi": [
    {
      "inputs": [
        {
          "internalType": "address",
          "name": "token_",
          "type": "address"
        },
        {
          "internalType": "bytes32",
          "name": "merkleRoot_",
          "type": "bytes32"
        },
        {
          "internalType": "uint256",
          "name": "AirdropAmount_",
          "type": "uint256"
        }
      ],
      "stateMutability": "nonpayable",
      "type": "constructor"
    },
    {
      "anonymous": false,
      "inputs": [
        {
          "indexed": true,
          "internalType": "address",
          "name": "_from",
          "type": "address"
        },
        {
          "indexed": false,
          "internalType": "uint256",
          "name": "_dropAmount",
          "type": "uint256"
        }
      ],
      "name": "Claimed",
      "type": "event"
    },
    {
      "inputs": [],
      "name": "AirdropAmount",
      "outputs": [
        {
          "internalType": "uint256",
          "name": "",
          "type": "uint256"
        }
      ],
      "stateMutability": "view",
      "type": "function"
    },
    {
      "inputs": [
        {
          "internalType": "address",
          "name": "account",
          "type": "address"
        },
        {
          "internalType": "uint256",
          "name": "amount",
          "type": "uint256"
        },
        {
          "internalType": "bytes32[]",
          "name": "merkleProof",
          "type": "bytes32[]"
        }
      ],
      "name": "claim",
      "outputs": [],
      "stateMutability": "nonpayable",
      "type": "function"
    },
    {
      "inputs": [],
      "name": "merkleRoot",
      "outputs": [
        {
          "internalType": "bytes32",
          "name": "",
          "type": "bytes32"
        }
      ],
      "stateMutability": "view",
      "type": "function"
    },
    {
      "inputs": [],
      "name": "token",
      "outputs": [
        {
          "internalType": "address",
          "name": "",
          "type": "address"
        }
      ],
      "stateMutability": "view",
      "type": "function"
    }
  ],
  "bytecode": "0x60806040523480156200001157600080fd5b5060405162000bac38038062000bac83398181016040528101906200003791906200016e565b826000806101000a81548173ffffffffffffffffffffffffffffffffffffffff021916908373ffffffffffffffffffffffffffffffffffffffff1602179055508160018190555080600381905550505050620001ca565b600080fd5b600073ffffffffffffffffffffffffffffffffffffffff82169050919050565b6000620000c08262000093565b9050919050565b620000d281620000b3565b8114620000de57600080fd5b50565b600081519050620000f281620000c7565b92915050565b6000819050919050565b6200010d81620000f8565b81146200011957600080fd5b50565b6000815190506200012d8162000102565b92915050565b6000819050919050565b620001488162000133565b81146200015457600080fd5b50565b60008151905062000168816200013d565b92915050565b6000806000606084860312156200018a57620001896200008e565b5b60006200019a86828701620000e1565b9350506020620001ad868287016200011c565b9250506040620001c08682870162000157565b9150509250925092565b6109d280620001da6000396000f3fe608060405234801561001057600080fd5b506004361061004c5760003560e01c80632eb4a7ab146100515780633d13f8741461006f57806346c7b2981461008b578063fc0c546a146100a9575b600080fd5b6100596100c7565b6040516100669190610472565b60405180910390f35b61008960048036038101906100849190610590565b6100cd565b005b610093610380565b6040516100a09190610613565b60405180910390f35b6100b1610386565b6040516100be919061063d565b60405180910390f35b60015481565b6000600260008673ffffffffffffffffffffffffffffffffffffffff1673ffffffffffffffffffffffffffffffffffffffff168152602001908152602001600020541461014f576040517f08c379a0000000000000000000000000000000000000000000000000000000008152600401610146906106db565b60405180910390fd5b60008484604051602001610164929190610764565b6040516020818303038152906040528051906020012090506101ca838380806020026020016040519081016040528093929190818152602001838360200280828437600081840152601f19601f82011690508083019250505050505050600154836103aa565b610209576040517f08c379a0000000000000000000000000000000000000000000000000000000008152600401610200906107dc565b60405180910390fd5b6001600260008773ffffffffffffffffffffffffffffffffffffffff1673ffffffffffffffffffffffffffffffffffffffff1681526020019081526020016000208190555060008054906101000a900473ffffffffffffffffffffffffffffffffffffffff1673ffffffffffffffffffffffffffffffffffffffff1663a9059cbb86866040518363ffffffff1660e01b81526004016102a99291906107fc565b6020604051808303816000875af11580156102c8573d6000803e3d6000fd5b505050506040513d601f19601f820116820180604052508101906102ec919061085d565b61032b576040517f08c379a0000000000000000000000000000000000000000000000000000000008152600401610322906108d6565b60405180910390fd5b8473ffffffffffffffffffffffffffffffffffffffff167fd8138f8a3f377c5259ca548e70e4c2de94f129f5a11036a15b69513cba2b426a856040516103719190610613565b60405180910390a25050505050565b60035481565b60008054906101000a900473ffffffffffffffffffffffffffffffffffffffff1681565b6000826103b785846103c1565b1490509392505050565b60008082905060005b845181101561040c576103f7828683815181106103ea576103e96108f6565b5b6020026020010151610417565b9150808061040490610954565b9150506103ca565b508091505092915050565b600081831061042f5761042a8284610442565b61043a565b6104398383610442565b5b905092915050565b600082600052816020526040600020905092915050565b6000819050919050565b61046c81610459565b82525050565b60006020820190506104876000830184610463565b92915050565b600080fd5b600080fd5b600073ffffffffffffffffffffffffffffffffffffffff82169050919050565b60006104c282610497565b9050919050565b6104d2816104b7565b81146104dd57600080fd5b50565b6000813590506104ef816104c9565b92915050565b6000819050919050565b610508816104f5565b811461051357600080fd5b50565b600081359050610525816104ff565b92915050565b600080fd5b600080fd5b600080fd5b60008083601f8401126105505761054f61052b565b5b8235905067ffffffffffffffff81111561056d5761056c610530565b5b60208301915083602082028301111561058957610588610535565b5b9250929050565b600080600080606085870312156105aa576105a961048d565b5b60006105b8878288016104e0565b94505060206105c987828801610516565b935050604085013567ffffffffffffffff8111156105ea576105e9610492565b5b6105f68782880161053a565b925092505092959194509250565b61060d816104f5565b82525050565b60006020820190506106286000830184610604565b92915050565b610637816104b7565b82525050565b6000602082019050610652600083018461062e565b92915050565b600082825260208201905092915050565b7f4d65726b6c654469737472696275746f723a2044726f7020616c72656164792060008201527f636c61696d656400000000000000000000000000000000000000000000000000602082015250565b60006106c5602783610658565b91506106d082610669565b604082019050919050565b600060208201905081810360008301526106f4816106b8565b9050919050565b60008160601b9050919050565b6000610713826106fb565b9050919050565b600061072582610708565b9050919050565b61073d610738826104b7565b61071a565b82525050565b6000819050919050565b61075e610759826104f5565b610743565b82525050565b6000610770828561072c565b601482019150610780828461074d565b6020820191508190509392505050565b7f496e76616c69642070726f6f6600000000000000000000000000000000000000600082015250565b60006107c6600d83610658565b91506107d182610790565b602082019050919050565b600060208201905081810360008301526107f5816107b9565b9050919050565b6000604082019050610811600083018561062e565b61081e6020830184610604565b9392505050565b60008115159050919050565b61083a81610825565b811461084557600080fd5b50565b60008151905061085781610831565b92915050565b6000602082840312156108735761087261048d565b5b600061088184828501610848565b91505092915050565b7f5472616e73666572206661696c65640000000000000000000000000000000000600082015250565b60006108c0600f83610658565b91506108cb8261088a565b602082019050919050565b600060208201905081810360008301526108ef816108b3565b9050919050565b7f4e487b7100000000000000000000000000000000000000000000000000000000600052603260045260246000fd5b7f4e487b7100000000000000000000000000000000000000000000000000000000600052601160045260246000fd5b600061095f826104f5565b91507fffffffffffffffffffffffffffffffffffffffffffffffffffffffffffffffff820361099157610990610925565b5b60018201905091905056fea264697066735822122029eba09ca37ae1295433ba46fc00971022a5d3abfc36c9dd596a2deda4de0a7c64736f6c63430008130033",
  "linkReferences": {},
  "deployedLinkReferences": {}
}